:020000040801F1
:1000000010890120710201088D4D0108F7360108A1
:10001000114C0108950A01087D5C010800000000F0
:10002000000000000000000000000000B101010815
:10003000490F0108000000000D0201080B540108DF
:100040008B0201088B0201088B020108C94F0108CD
:100050008B0201088B020108D11001088B020108F4
:10006000F11001088B0201088B0201088B020108C4
:100070008B0201088B0201088B0201088B02010828
:100080008B0201088B0201088B02010800000000AE
:100090000000000000000000000000008B020108CA
:1000A0008B020108D55401088B0201088B0201085C
:1000B0008B0201088B0201088B0201088B020108E8
:1000C0008B0201088B0201088B0201088B020108D8
:1000D0008B0201083D5C01088B0201080000000052
:1000E000E11001088B0201088B02010800000000EA
:1000F0000000000000000000000000008B0201086A
:10010000000000008B0201088B0201088B0201082D
:1001100000000000000000000000000000000000DF
:100120008B0201088B020108AD0C01088B0201084B
:100130008B02010800000000000000000000000029
:100140000000000000000000000000008B02010819
:10015000B90C01088B020108C50C01088B020108CB
:100160008B0201088B020108000000000000000063
:10017000000000000000000000000000000000007F
:10018000000000008B0201080000000000000000D9
:100190008B0201088B020108DFF810D000F056FB3B
:1001A00000480047C10D0308AFF30080108901200B
:1001B0002C4B19680868B0E8F04F80F30988BFF34A
:1001C0006F8F4FF0000080F311887047000000002F
:1001D00008480068006880F308884FF0000080F34A
:1001E000148862B661B6BFF34F8FBFF36F8F00DF25
:1001F00000BF00BF08ED00E0DFF80C00016841F42B
:1002000070010160704700BF88ED00E0EFF30980E6
:10021000BFF36F8F134B1A681EF0100F08BF20ED4D
:10022000108A20E9F04F106009B44FF0500080F3BD
:100230001188BFF34F8FBFF36F8F29F089FE4FF006
:10024000000080F3118809BC19680868B0E8F04F15
:100250001EF0100F08BFB0EC108A80F30988BFF3BE
:100260006F8F7047B8040020EFF3058070470000DF
:100270000648804706480047FEE7FEE7FEE7FEE740
:10028000FEE7FEE7FEE7FEE7FEE7FEE7B9540108FA
:10029000990101082DE9F05F0546002092469B4632
:1002A00088460646814640241BE02846414647468C
:1002B000224600F01CFA53465A46C01A914110D308
:1002C00011461846224600F003FA2D1A67EB010882
:1002D0004F4622460120002100F0FAF917EB0009F1
:1002E0004E41201EA4F10104DFDC484631462A4677
:1002F0004346BDE8F09F40EA01039B0703D009E0B5
:1003000008C9121F08C0042AFAD203E011F8013B01
:1003100000F8013B521EF9D27047D2B201E000F85A
:10032000012B491EFBD270470022F6E710B5134699
:100330000A4604461946FFF7F0FF204610BD421C4E
:1003400010F8011B0029FBD1801A704710B500225C
:1003500000E0521C835C8C5CA34201D1002BF8D1DD
:10036000D8B2E1B2401A10BD30B5044600200346B1
:1003700000E05B1C934203D2E05CCD5C401BF8D0F4
:1003800030BD034611F8012B00F8012B002AF9D1EA
:10039000184670472DE9FE4F804681EA0300C00FE2
:1003A0000C46009021F0004123F00045B8EB02001C
:1003B000A94105D24046214690461C460B460246BE
:1003C00023F00040104347D0270DC7F30A00C3F3C2
:1003D0000A510290401A019040286BDAC3F31300CF
:1003E00040F4801B0098924620B10023D2EB030A10
:1003F00063EB0B0B01985946C0F14002504600F0E8
:1004000067F906460D4650465946019A00F07FF9B5
:1004100010EB08006141002487EA115284EAE77377
:100420001A4340D0009A62B3019A012A4FEA075258
:1004300015DC001B61EB02014FF0004202EA07529B
:10044000CDE90042001C41F5801132462B4600F0F8
:100450007FF903B0BDE8F08F40462146F9E7001B65
:1004600061EB0201001C41F5801300185B4120186C
:10047000A2F5001747EB030140EAD570B6196D41AC
:1004800011E06D084FEA360645EAC0754FEA07529B
:10049000001B61EB0201001C41F5801149084FEA85
:1004A00030000019514132462B4603B0BDE8F04FF1
:1004B00000F03FB90098012240000023D0EB020277
:1004C00063EBE073009821464FEAE074B8EB00005C
:1004D00061EB0401E9E783F000435BE781F0004151
:1004E00058E72DE9FE4F81EA030404F0004421F0AF
:1004F000004100944FF0000B23F0004350EA010448
:100500005ED052EA03045BD0C3F30A54C1F30A5528
:100510002C44A4F2F3340194A0FB0254C1F3130160
:1005200041F48011C3F3130343F4801301FB02442D
:1005300000FB034E840A970A44EA815447EA835732
:10054000A4FB076802958D0A05FB07854FEA932CEB
:1005500004FB0C542705029D4FEA065847EA16375C
:10056000B5EB08056EEB070C870E920E47EA811774
:1005700042EA8312A7FB0201B6EB0B0164EB000415
:100580002B0D43EA0C335E1844EB1C50DA465146FF
:10059000E7FB0201C5F313044FEA0B3343EA14539C
:1005A0004FEA0432019C43EA0603A4F10C040294CE
:1005B000009CCDE900B400F0CBF803B0BDE8F08FAB
:1005C00000200146F9E72DE9F04D81EA030404F02B
:1005D000004B21F0004514464FF0000A23F0004183
:1005E00050EA050220D054EA01021DD0C5F30A5793
:1005F0000246C5F31303C1F31300C1F30A5640F4D6
:10060000801543F48013A7EB0608101BD64608F2AA
:10061000FD3873EB050002D308F1010801E09218E0
:100620005B41B8F1000F03DA00200146BDE8F08D10
:1006300000204FF48011064684460EE0171B73EB32
:10064000050705D3121B63EB050306434CEA010CB7
:1006500049084FEA300092185B4150EA0107EDD19A
:1006600052EA030012D082EA040083EA050108433B
:1006700005D0101BAB4106D20122002306E0002268
:100680004FF0004302E06FF0010253101AEB060036
:100690004CEB085110EB0A0041EB0B01BDE8F04DAB
:1006A00000F047B830B50B46014600202022012457
:1006B00009E021FA02F59D4205D303FA02F5491B30
:1006C00004FA02F52844151EA2F10102F1DC30BD46
:1006D000202A04DB203A00FA02F100207047914002
:1006E000C2F1200320FA03F3194390407047202AF7
:1006F00004DB203A21FA02F00021704721FA02F3CC
:10070000D040C2F120029140084319467047202A88
:1007100006DBCB17203A41FA02F043EAE07306E029
:1007200041FA02F3D040C2F1200291400843194639
:10073000704710B5141E73F1000408DA401C41F133
:10074000000192185B411A4301D120F0010010BD55
:100750002DE9F04D92469B4611B1B1FA81F202E0CB
:10076000B0FA80F220329046FFF7B2FF04460F46FF
:1007700040EA0A0041EA0B0153465A46084313D0A7
:10078000114653EA010019D0C8F140025046FFF764
:10079000AEFF05460E46504659464246FFF798FFC3
:1007A000084305D0012004E020463946BDE8F08D1D
:1007B0000020054346EAE0762C4337430A98630558
:1007C000E40AA0EB08000022FD0A44EA47540A307C
:1007D00002D500200146E9E7010510196941DDE96C
:1007E000084500196941BDE8F04DA2E7C1F30A527E
:1007F000C1F3130140F2FF3341F480119A4202DA4F
:1008000000200146704740F233439A42A2F233423D
:1008100002DC5242FFF76BBFFFF75ABF30B5041E30
:1008200071F1000404DB4FF00044404264EB01012D
:10083000141E73F1000405DB1C464FF000435242C6
:1008400063EB0403994208BF904230BD064C074D4C
:1008500006E0E06840F0010394E807009847103490
:10086000AC42F6D3FFF79CFCCCD20508ECD20508CD
:1008700070B58C1810F8015B15F0070301D110F862
:10088000013B2A1106D110F8012B03E010F8016B8F
:1008900001F8016B5B1EF9D12B0705D40023521E12
:1008A0000DD401F8013BFAE710F8013BCB1A921C7A
:1008B00003E013F8015B01F8015B521EF9D5A14278
:1008C000D8D3002070BD0000464910B54A6822F414
:1008D00040324A604A6843681A434A6001684A687D
:1008E00022F480724A6001684A68036942EA03227E
:1008F0004A6001684A6822F040724A6001684A68AA
:1009000083681A434A6001688A6822F400628A6038
:1009100001688A68C3681A438A60816A6FF07062EE
:10092000D14201688A6822F070628A6001688A6830
:100930000CD0836A1A438A6001688A6822F04052A8
:100940008A6001688A68C36A1A4301E022F0405253
:100950008A6001688A6822F002028A6001688A68F7
:10096000037E42EA43028A6090F820100029016861
:100970004A680FD042F400624A6001684A6822F473
:1009800060424A6001684A68174C436A04EB43338B
:100990001A4301E022F400624A600168CA6A22F444
:1009A0007002CA620168CA6A838B104C04EB03535D
:1009B0001A43CA6201688A6822F400728A60016878
:1009C0008A6890F8303042EA43228A6001688A6877
:1009D00022F480628A6001688A68406942EA802065
:1009E000886010BD0023014000E0FFFF0000F0FF21
:1009F000064882B0016841F001010160006800F022
:100A000001000090024802B003F040B830380240C4
:100A10009404002008B543181AB111B1B3F5807FD2
:100A200001D9012008BD00920B4602465021024820
:100A300003F032F908BD000094040020F8B5064622
:100A4000170008440C4614D09CB1B0F5807F10D834
:100A500019E000BF06F00700C0F10805AC4200D263
:100A600025462B46324650210948009703F086F967
:100A700008B10120F8BD062009F0C6FA7019C6B207
:100A8000601B2F44C4B2002CE4D10020F8BD00004C
:100A900094040020FEE7000030B587B014216846BA
:100AA000FFF742FC0F48016841F002010160006855
:100AB0004FF4807400F0020005900120CDE9004061
:100AC00002900320084D03906946284600F0E2FE9C
:100AD00001222146284600F0D2FF044802F0D6FF4A
:100AE00007B030BD303802400004024088040020C6
:100AF000022000F027B800001CB501A800900423D4
:100B0000032215210E4803F0C7F89DF804109DF844
:100B1000050001F00F0140EA01229DF806309DF822
:100B20000700074903F00F0340EA03200839A0F249
:100B30001710C2F1EF024042C1E900201CBD0000C5
:100B40008804002002461521014803F0E9B800009E
:100B5000880400200B4602461521014803F042B9E3
:100B60008804002070B50A4D4FF48074002221469D
:100B7000284600F084FF0A2000F0D6FD012221461D
:100B8000284600F07CFFBDE87040642000F0CCBD3A
:100B9000000402400321E520FFF7DCBFFFF7E2BFBE
:100BA000114D124F124E00244FF4FA782878B8B144
:100BB0003C802C7000F074F840B104F037F9806884
:100BC000B04203D00B4804F03DF909E000F068F8AA
:100BD00030B904F02BF98068B04201D104F0D8F8A4
:100BE000404620F0C3FDE1E7030000205000002054
:100BF000E4000020D80000207FB504F017F98068D9
:100C00001E49884236D11E4D02A8296888471D48D2
:100C10009DF80D20194C01788A4208D002701AA163
:100C2000684605F0E7F86946606919F08FF81848DA
:100C30009DF80C2001788A4208D0027012A1684603
:100C400005F0D8F86946206919F080F8A86A80474D
:100C5000104D01462870401E63280CD8606812F0C1
:100C6000A6FC2A780CA1684605F0C4F86946E0683D
:100C700019F06CF87FBD002028707FBDE4000020D3
:100C8000540000209D010020253032640000000047
:100C90009C010020A10100202532642525000000D0
:100CA0000421014800F0E6BE00000240014800F0C7
:100CB000C9BB0000A4070020014800F0C3BB00002E
:100CC00094090020014800F0BDBB0000F409002099
:100CD00001681823CAB2103AB2FBF3F2054B6FF366
:100CE0000901032A9B5CC36500D9091D816508467B
:100CF00070470000FCBA040810B5014600208B695B
:100D00008A6A4FF0C07453B1B3F5005F15D072B169
:100D1000012A0CD0022A0AD0032A09D104E01AB110
:100D2000012A06D0022A03D1C96AC90100D50120CF
:100D300010BDC96AA142FAD010BD002AF7D0012A1D
:100D4000F2D0022AF3D0032AF3D010BD30B50468E4
:100D5000256825F480252560046863608368402B3E
:100D6000036803D099600068C26030BD9A60006873
:100D7000C16030BD86B0684622F096FB9DF8023017
:100D80009DF801209DF8031001A800F0E1F8634EE2
:100D9000634CC8B194F8350000B101208DF804000F
:100DA000307800B101208DF805009DF803008DF822
:100DB00006009DF801008DF807009DF802008DF8EF
:100DC0000800608EADF80A0020F0DDFCDFF854B1B9
:100DD000B14605460026A246DDE90101CDE9030141
:100DE0004FF000088DF814604FF47A73424605A95D
:100DF000DBF8000020F0FCFC684622F055FB9DF873
:100E000004109AF83500544608B1012200E000228F
:100E1000914207D19DF8052099F8001001B10121F8
:100E20008A4201D0012700E0002700B101208DF89F
:100E30000C0099F8000000B101208DF80D009DF81C
:100E400006009DF80310884210D19DF807009DF818
:100E5000011088420AD19DF808009DF802108842CE
:100E600004D1648E9AF83000C0B11BE094F83000D1
:100E700010B9A16C0020884766869DF803008DF8A4
:100E80000E009DF801008DF80F009DF802008DF80E
:100E90001000ADF812604FF0010813E0DAF84400DA
:100EA00080470446BDF80A00A04207D99AF83010DE
:100EB000044619B9DAF8481020468847AAF83240A3
:100EC000ADF8124020F05FFC04469DF814000428A1
:100ED00001D14FF00108BDF81210BDF80A0081429F
:100EE00005D30A1A92B2642A01D34FF00108814255
:100EF00003D00D49601B884204D21FB9B8F1000F1E
:100F00003FF46AAF03A800F08FF800287FF464AFC5
:100F1000DDE903012546CDE901015DE7100100206F
:100F2000540000204C000020E093040001B5054867
:100F30000068002804D000231A46694620F0B6FC59
:100F400008BD00004C0000207047FFF751BD0000B5
:100F50002DE9F04792B04FF0000590468946040015
:100F60009A46009501950CD01A464146484608F02D
:100F700035FF30B106AA18210020FFF74BFD20B144
:100F80000BE0012012B0BDE8F0876A4602A906A86E
:100F900021F00EFF08B1012700E000270CAA18215C
:100FA0002020FFF737FD38B901AA04A90CA821F0C9
:100FB000FFFE08B1012000E000201A4E57EA0001B0
:100FC00018D06FB120B1DDE90010401A002807DC0D
:100FD000029820600398606000987060357007E0A8
:100FE000049820600598606001987060202030703F
:100FF0000020C7E7534642464946204611F09EFB73
:1010000040B92570657084F8029084F8038084F8F4
:1010100004A0E580FF2075603070204600F004F8E1
:10102000B0E70000B0040020F0B591B0044628F00D
:10103000B4FCE8B3254E307898B100257768214696
:101040007F1C3A4606A821F0F8FE00208DF83000FB
:1010500005F1170004460CAA0121FFF7EFFC38BB8D
:1010600001E02025EAE706AA17212846FFF7E6FC5B
:10107000F0B96A4617212846FFF7CCFCC0B9172201
:10108000694606A8FFF770F990B9A5208DF83000E1
:1010900020460CAA0121FFF7D1FC48B96A46182165
:1010A0002846FFF7B7FC18B90DAA0EA9684600E05C
:1010B00005E021F07DFE10B10D98B84202D001206C
:1010C00011B0F0BD776035700020F9E7B004002062
:1010D00002490120487000F0D1BB00000000002050
:1010E000024901208870000300F0C8BB0000002006
:1010F00002490120C870042000F0C0BB000000209D
:1011000072B6FEE778B50024009490F83C20012ADE
:1011100019D0012280F83C200A6807230568092AB3
:1011200013D9EE680A3A02EB420293409E43EE6006
:101130000B788A680A3B03EB43039A400368DD6837
:101140002A43DA6010E0022078BD2E6902EB4202E9
:1011500093409E432E610B788A6803EB43039A40C9
:1011600003681D692A431A614A681F23072A13D29C
:1011700005686E6B521E02EB820293409E436E63C3
:101180000A8893B20A79521E02EB820293400268E7
:10119000556B2B43536327E005680D2A12D22E6B43
:1011A000D21F02EB820293409E432E630B790A8882
:1011B000DB1F92B203EB83039A4003681D6B2A4343
:1011C0001A6311E0EE6A0D3A02EB820293409E43ED
:1011D000EE620B790A880D3B92B203EB83039A40CF
:1011E0000368DD6A2A43DA621B4B0568194A9D428F
:1011F0000AD10D68122D07D1556825F400055560F8
:10120000556845F48005556005689D421DD1134D14
:101210000B68AB4201D0112B17D1536823F4800324
:101220005360536843F4000353600968A9420CD12A
:101230000B490C4A0968B1FBF2F101EB810149004D
:1012400000E0491E00910029FBD180F83C400020BD
:1012500078BD000000230140002001401200001072
:101260007C04002040420F0070B504004FF00005E0
:1012700003D0206C002610B107E0012070BD20468D
:1012800000F01CF8666484F83C60206CC00610D442
:10129000206C20F4885040F0020020642046FFF7C4
:1012A00013FB6664206C20F0020040F00100206413
:1012B00000E0012584F83C60284670BD10B586B07A
:1012C000044614216846FFF72FF811492068884228
:1012D0001CD110480021026842F48072026000684C
:1012E00000F4807005900B481438026842F0010247
:1012F0000260006800F001000590022000900320C9
:10130000CDE901016946044800F0C4FA06B010BDF9
:101310000020014044380240000002400248416879
:1013200021F0020141607047002004E02DE9F04106
:101330000446876D00F0A8FB064694F835000025AA
:10134000022806D08020606584F834500120BDE872
:10135000F0812068016821F0160101602068416970
:1013600021F080014161206C08B9A06C20B1206897
:10137000016821F0080101602068016821F0010185
:1013800001600CE000F080FB801B052807D92020BD
:101390006065032084F8350084F83450D7E720686E
:1013A0000068C007EED194F85C103F208840B86018
:1013B000012084F8350084F834500020C7E790F805
:1013C0003510022903D08021416501207047052195
:1013D00080F835100068016821F0010101600020EB
:1013E000704770B504002BD094F83500022826D041
:1013F0002068016821F00101016020680025056076
:1014000020684560206885602068C56020680561A7
:101410002168212048612046FFF75AFCE5632564D6
:101420006564A564E564256594F85C203F219140DE
:101430008160656584F8355084F83450002070BDB3
:10144000012070BD2DE9F84304464FF00009CDF8A6
:10145000009063484FF41651A56D0068B0FBF1F79A
:101460002E6894F85C10082000FA01F131420FD088
:1014700021680A6852070BD50A6822F004020A6044
:1014800094F85C108840A860606D40F001006065D1
:1014900094F85C104FF0010808FA01F0304208D0CF
:1014A00021684969090604D5A860606D40F0020012
:1014B000606594F85C1004208840304208D02168B0
:1014C0000968890704D5A860606D40F00400606574
:1014D00094F85C1010208840304218D021680968C8
:1014E000090714D5A86020680168490304D500687D
:1014F000000308D5A16C07E00168C90503D40168A1
:1015000021F008010160216C09B12046884794F858
:101510005C1020208840304231D021680968C9061B
:101520002DD5A86094F8350005282068016806D0FC
:10153000490347D5006800031DD4616C1CE021F00D
:10154000160101602068416921F080014161206C31
:1015500008B9A06C20B12068016821F00801016081
:1015600094F85C103F208840A86084F8358084F8A7
:101570003490216D1FE0E16B09B120468847606D12
:1015800000282BD0606DC00714D0052084F83500EA
:101590002068016821F0010101600098401C009062
:1015A000B84203D820680068C007F6D184F83580B7
:1015B00084F83490E16C002910D001B02046BDE8D9
:1015C000F04308470168C905D5D4016821F010012E
:1015D000016084F8358084F83490CCE7BDE8F88366
:1015E0007C0400202DE9F041044600F04DFA064647
:1015F0005CB1022084F83500002584F8345020685E
:10160000016821F0010101600DE00120BDE8F081D9
:1016100000F03AFA801B052805D9202060650320D8
:1016200084F83500F2E720680068C007F0D122682E
:10163000116820480140D4E901031843D4E9033676
:101640003343184363691843A3691843E369184394
:10165000236A18430843616A042903D1D4E90B13B0
:1016600019430843106020684069666A20F007014A
:1016700030460E43012704280CD1A06A0643E06AD5
:1016800040B12046FFF738FB20B14020606584F868
:101690003570BAE7206846612046FFF719FB94F8D9
:1016A0005C203F2191408160656584F835700020A1
:1016B000ACE700003F8010F02DE9F0410446866D54
:1016C00090F83400002501280DD0012084F8340062
:1016D00094F835700020012F07D084F834000225DB
:1016E0002846BDE8F0810220FBE7022784F8357028
:1016F00060652046FFF72AFB94F85C103F20884085
:10170000B0602068016841F016010160206C20B1D2
:101710002068016841F0080101602068016841F01B
:1017200001010160DCE7000070B5044600F0ACF98F
:101730000546601C02D004480078044400F0A4F977
:10174000401BA042FAD370BD700400202DE9F04F79
:101750000022DFF808B101264FF00F0906FA02F463
:1017600001EA0403A34274D122F003075F44D7F8CF
:10177000088895074FEA157C09FA0CFA0AEA080569
:10178000DFF8DC80404502D14FF000081DE0DFF8B3
:10179000D480404502D14FF0010816E0DFF8C88040
:1017A000404502D14FF002080FE0DFF8C08040450D
:1017B00002D14FF0030808E0DFF8B480404502D1C1
:1017C0004FF0040801E04FF0070808FA0CF8A845AC
:1017D00022D1284DD5F800C02CEA030CC5F800C072
:1017E0002D1DD5F800C02CEA030CC5F800C0214D12
:1017F0000C35D5F800C02CEA030CC5F800C02D1F2D
:10180000D5F800C02CEA030CC5F800C0D7F808587A
:1018100025EA0A05C7F80858056857000323BB40A6
:101820009D430560D50800EB8505D5F820C0570716
:101830004FEAD76809FA08F72CEA070CC5F820C068
:10184000C5689D43C5604568A543456084689C4361
:101850008460521C102A81D3BDE8F08F0030014013
:10186000000002400004024000080240000C024058
:1018700000100240003C014070470000044910B5D0
:101880000A68024202D00860FFF7F6FF10BD0000B0
:10189000143C01402DE9F84FDFF8B8A100220124E3
:1018A00003254FF00F090AF1040BAAF1040E00BF43
:1018B0000B6804FA02F63340B34273D10F7907F094
:1018C0000307012F01D0022F16D187684FEA420883
:1018D00005FA08FC27EA0C07D1F80CC00CFA08FC42
:1018E0004CEA070CC0F808C04768B7430E79C6F346
:1018F000001696403E4346600E79F643B6070DD07B
:10190000C768560005FA06FC27EA0C07D1F808C09C
:101910000CFA06FC4CEA070CC0F80CC00E7906F075
:101920000306022E10D1D60800EB8608D8F82060F6
:1019300057074FEAD76C09FA0CF7BE430F6907FA4D
:101940000CF73743C8F8207006684FEA420C05FAD6
:101950000CF7BE430F7907F0030707FA0CF737437C
:1019600007604E6816F4403F6DD03B4E376847F431
:1019700080473760366822F0030706F480460096F9
:10198000364E07EB060CDCF8086897073F0F09FA9C
:1019900007F826EA0806DFF8C880404503D14FF073
:1019A00000081EE04FE0DFF8BC80404502D14FF058
:1019B000010816E0DFF8B080404502D14FF0020880
:1019C0000FE0DFF8A880404502D14FF0030808E09F
:1019D000DFF89C80404502D14FF0040801E04FF051
:1019E000070808FA07F848EA0608CCF80888DAF881
:1019F00000605746D1F804C09E435FEACC2C00D566
:101A00001E433E60DBF800605F46D1F804C09E4391
:101A10005FEA8C2C00D51E433E60DEF800607746FE
:101A2000D1F804C09E435FEA8C3C00D51E433E6063
:101A3000084F083F3E68D1F804C09E435FEACC3CA3
:101A400000D51E433E60521C102AFFF431AFBDE8A2
:101A5000F88F0000083C014044380240003001404B
:101A6000000002400004024000080240000C024056
:101A7000001002400069084000D0012070470AB100
:101A8000816170470904FBE70148806870470000E6
:101A90007004002002488168027811448160704718
:101AA000700400200B4810B5016841F4007101601A
:101AB000016841F480610160016841F48071016056
:101AC000032000F0B7F80F2000F006F800F04AF805
:101AD000002010BD003C024030B505461C4887B0D0
:101AE0000024016841F001010160006806A900F0CE
:101AF0000100009001A800F017FA00F045FA15491E
:101B0000154AB0FBF1F11548491E026040F2E73278
:101B1000C0E90324C0E90114846101F053F8040012
:101B200012D10E4801F07CF804000DD1192000F00C
:101B300053F8102D07D200222946192000F05AF838
:101B40000748056000E0012407B0204630BD0000D2
:101B50004438024040420F0000000140700A00205B
:101B6000740400200C4882B0016841F48041016097
:101B7000006800F4804000900748001F016841F0B1
:101B8000805101600068002200F0805000900F2119
:101B9000901E02B000F02EB844380240002809DB45
:101BA00000F01F02012191404009800000F1E02077
:101BB000C0F88012704700280DDB00F01F020121E1
:101BC00091404009800000F1E020C0F88011BFF38F
:101BD0004F8FBFF36F8F7047002809DB00F01F02A3
:101BE000012191404009800000F1E020C0F800117F
:101BF00070470000F0B40E4B1B680C46C3F3022381
:101C0000C3F10705042D00D90425191D072901D2A8
:101C1000002300E0DB1E012606FA05F1491E2140E3
:101C200099409E40761E16403143F0BC04F009B93D
:101C30000CED00E0064900F0070208684FF6FF03CC
:101C4000184040EA0220034A104308607047000031
:101C50000CED00E00000FA050149012048627047E0
:101C600000000E420C4A136823F003030343136081
:101C70000A48026842F004020260012909D00329DF
:101C800001D040BF20BF20BF016821F004010160E6
:101C9000704730BFF8E700000070004010ED00E032
:101CA0002DE9F843044600684FF00109C1074FF0E1
:101CB000000601D1400729D5DFF82081C8F8686007
:101CC000FFF7E2FE0746464D05E000BFFFF7DCFEEA
:101CD000C01B022859D828680001F7D4A068217BCE
:101CE000800140EA0170616808433D498431086021
:101CF000C8F86890FFF7C8FE074604E0FFF7C4FE87
:101D0000C01B022841D828680001F7D52078800739
:101D100052D533484030016841F08051016000687D
:101D2000304D00F080500090286840F480702860AA
:101D3000FFF7AAFE074604E0FFF7A6FEC01B022835
:101D400023D82868C005F7D5254D7035286810F4CC
:101D5000407020D0218A01F4407181421BD0286854
:101D6000214920F44070C1F800900E602860286876
:101D7000C00710D0FFF788FE064641F2883707E01B
:101D8000FFF782FE801BB84202D90320BDE8F8832A
:101D900028688007F4D521691148C1F30122083071
:101DA000032A12D0016821F4F81101602868218A01
:101DB000C1F30B01084328602078000703D50B49C5
:101DC000207DC1F8E0010020E0E70268084B22F422
:101DD000F81219400A430260E8E700000000474299
:101DE0000038024000700040400E47420010474259
:101DF000FFFCFF0F2DE9F0470E46050065D0DFF828
:101E00001481D8F80000F7B200F00700B04207D202
:101E100088F80070D8F8000000F00700B04254D1F4
:101E200028683D4C810712D5400703D5206840F44F
:101E3000E05020602878000703D5206840F4604017
:101E400020602068A96820F0F0000843206028780E
:101E5000C0072DD0304968680839012812D00228FF
:101E600013D0032811D00968890700292DDA2168C9
:101E700021F0030101432160FFF706FE814641F294
:101E8000883A0EE009688903EFE709688901ECE701
:101E9000FFF7FAFDA0EB0901514502D90320BDE887
:101EA000F0872068696800F00C00B0EB810FEFD17B
:101EB000D8F80010404601F00701B14207D9077079
:101EC000006800F00700B04201D00120E7E7287861
:101ED000400705D52068E96820F4E05008432060F9
:101EE0002878000706D52068296920F4604040EA78
:101EF000C100206000F058F82168084AC1F30311BE
:101F0000515CC8400649086006480068FFF7E4FDD8
:101F10000020C4E7003C02400838024004BB04082B
:101F20007C040020740400200F2202600C4A136815
:101F300003F003034360136803F0F0038360136846
:101F400003F4E053C36012684FF4E05303EAD20293
:101F500002610448006800F0070008607047000054
:101F600008380240003C02400448054900680968FE
:101F7000044AC1F38221515CC84070477C040020B0
:101F80000838024014BB0408044805490068096881
:101F9000044AC1F34231515CC84070477C040020C0
:101FA0000838024014BB0408154810B5006810F04A
:101FB0000C02144813D01449042A0FD0082A0ED159
:101FC0000F4C241F2268236802F03F025B0207D5F2
:101FD0002068C0F38810A0FB010106E0084610BD90
:101FE0002168C1F38811A1FB00010023FEF752F91B
:101FF0002168C1F30141491C4900B0FBF1F010BD5B
:10200000083802400024F40040787D012DE9F84FA3
:1020100004006ED02078DFF84C93C007A9F10405C6
:102020004AD009F104000168C1F38101012908D0F7
:102030000068C0F3810002280AD1D9F800004002EC
:1020400006D52868800337D560680028E1D033E0E2
:102050006068B0F5803F10D0B0F5A02F286810D090
:1020600020F480302860286820F480202860606890
:10207000A8B1FFF709FD06460DE0286840F480305E
:10208000F4E740F480202860F7E700BFFFF7FCFC8E
:10209000801B642873D828688003F7D50CE0FFF70D
:1020A000F3FC064605E000BFFFF7EEFC801B64284A
:1020B000F0D828688003F7D42078DFF8AC82800756
:1020C0004FF0000A3ED5A748001D016811F00C0F23
:1020D00008D00068C0F3810002280BD1D9F80000B5
:1020E000400207D42868800716D5E068012800D18F
:1020F00012E033E1E068B8B10120C8F80000FFF752
:10210000C3FC064605E000BFFFF7BEFC801B0228AB
:10211000C0D828688007F7D52868216920F0F80022
:1021200040EAC10028600DE0C8F800A0FFF7ACFC51
:10213000064604E0FFF7A8FC801B02281FD8286889
:102140008007F7D42078000722D5864F8748616939
:10215000703771B101210160FFF796FC064604E07B
:10216000FFF792FC801B022809D838688007F7D552
:102170000EE0C0F800A0FFF787FC064605E082E00D
:10218000FFF782FC801B02287DD838688007F7D4CF
:102190002078400768D5DFF8CCB100270BF13C0B65
:1021A000DBF80000C0000BD4DBF8001041F08051D8
:1021B000CBF80010DBF80000012700F08050009001
:1021C0006B4E3068C00510D4306840F480703060C9
:1021D000FFF75AFC009005E0FFF756FC0099401A03
:1021E000022850D83068C005F6D55E4EA0686C361F
:1021F00001280FD00528306810D020F00100306091
:10220000306820F004003060A068B8B1FFF73CFCF3
:1022100000900FE0306840F00100F4E740F0040067
:102220003060F7E7FFF730FC0099411A41F288303F
:10223000814266D830688007F4D50EE0FFF724FCB1
:10224000009007E0FFF720FC0099411A41F2883026
:10225000814256D830688007F4D42FB1DBF80010E3
:1022600021F08051CBF80010A069C8B33D49091D89
:102270000968C1F3810102294AD00228504607D0DB
:10228000C8F8600000E03CE0FFF7FEFB04463BE0DE
:102290004746C8F86000FFF7F7FB064605E000BFB9
:1022A000FFF7F2FB801B02282BD828688001F7D4A7
:1022B000D4E907010843A16A2E4A490802EB01410B
:1022C000626A41EA8211084394F82C1040EA0161E5
:1022D000C9F8001001203866FFF7D6FB044606E077
:1022E0003EE000BFFFF7D0FB001B022809D828689A
:1022F0008001F7D534E000BFFFF7C6FB001B0228C2
:1023000002D90320BDE8F88F28688001F4D427E0C3
:102310000128F7D0D9F80000E26900F48001914269
:102320001CD1226A00F03F01914217D147F6C071DB
:10233000626A0140B1EB821F10D1A26A4FF0FF33F5
:1023400000F4403103EB5202B1EB024F06D194F896
:102350002C1000F07060B0EB016F01D00120D1E7CC
:102360000020CFE70438024000004742800E474279
:10237000007000400000FFFF0068503050F821005E
:1023800070470068503040F8212070472DE9F04731
:102390000446007F01281CD00126267702206077A2
:1023A0002168CA20486221685320486220688168F9
:1023B00021F4806181602068816821F4804181601E
:1023C000FFF762FB054600274FF0FF084FF47A79CC
:1023D0000EE00220BDE8F087FFF756FB401B4845A2
:1023E00006D92168C1F82480032060772777F1E7B8
:1023F0002068C0684007EFD52168C1F8248066775F
:1024000027770020E6E7704710B50A4904464FF4E5
:10241000800008602068C168490508D5C16801F0DE
:10242000800161F49061C1602046FFF7ECFF01205C
:10243000607710BD143C014010B500680B46416840
:102440000D480140080CD870C1F304245C7001F001
:102450003F049C70C1F34231197052B902F030FD53
:10246000D870587802F02CFD5870987802F028FD4A
:102470009870002010BD00003FFFFF0010B50B4614
:102480000168896A596001680969C1F30E019960A0
:10249000006801680D480140C1F305401870C1F3A0
:1024A00006245C7001F07F049C70890DD97052B9CC
:1024B00002F006FD1870587802F002FD5870987806
:1024C00002F0FEFC9870002010BD00007F7F7F00AE
:1024D00010B5040002D0607F10B106E0012010BDED
:1024E00000202077204600F041F802206077206825
:1024F000C168C943C90632D5CA2141622168532047
:102500004862204602F0F0FC20BB20688168164A31
:10251000114081602168886862681043D4E904230F
:102520001A43104388602168E068086120680169E7
:10253000228941EA02410161204602F0F9FC48B9D2
:1025400021680A6C22F480220A6421680A6CA3695B
:102550001A430A642268FF21516208B110BD0020AD
:102560000121617710BD0000BFFF8FFF10B586B05D
:10257000044618216846FDF7D7FE0B4920688842BB
:102580000FD102200090000204906846FFF788FBFC
:1025900008B1FEF7B5FD0549012008600320FFF7EB
:1025A0000AFB06B010BD0000002800403C0E474268
:1025B00070B50446007F0B46012819D00126267706
:1025C00002206077B2B19878D97840EA014558780E
:1025D0001978000240EA413005432168CA20486268
:1025E000216853204862204602F07EFCD0B122E0F0
:1025F000022070BD5878C10603D500F0EF000A3004
:102600005870D87802F065FC0204587802F061FC3A
:1026100042EA0022987802F05CFC0243187842EA11
:102620004035DAE70748054020684560204602F05B
:102630007FFC00B966772268FF2151620021217773
:1026400070BD00003FFFFF002DE9F0410446007F10
:102650000D46012823D04FF0010884F81C80022089
:1026600060772068002780684FEA4060D2B1002878
:1026700000DBEF70A878297840EA01466878E978AD
:10268000000240EA815006432168CA20486221685E
:1026900053204862204602F027FCB8B12CE002200B
:1026A000BDE8F081002800DBEF70287802F011FC13
:1026B0000204687802F00DFC42EA0022A87802F0D9
:1026C00008FC0243E87842EA8056DDE70D48064000
:1026D000206806602068816821F480218160D5E946
:1026E0000301084321688A6810438860204602F08D
:1026F0001FFC08B984F81D802268FF2151622777EA
:10270000CEE700007F7F7F0070B504460B4821684C
:10271000C860FFF7B9F905464FF47A7607E000BFC5
:10272000FFF7B2F9401BB04201D9032070BD206809
:10273000C0688006F4D5002070BD00005F3F010036
:1027400003480068C16841F00101C16070470000A2
:10275000700A0020704770B5040009D0606A002537
:1027600040B125616561A56294F8510040B10CE06B
:10277000012070BD6068B0F5827FF4D0E561F2E7BA
:1027800084F85050204600F045F8022084F85100AB
:102790002068016821F040010160A088218900F4CF
:1027A000827001F404410843A18901F400610843E7
:1027B000217C01F002010843217D01F00101084361
:1027C000218B01F400710843217F01F03801084397
:1027D00094F8201001F080010843218D01F400518C
:1027E000084321680860A069042101EA104094F8B8
:1027F000241001F010010843216848602068C16975
:1028000021F40061C1616565012084F85100002058
:1028100070BD000070B586B0064614216846FDF70D
:1028200083FD2049306888423AD11F48002501685D
:1028300041F480510160006800F4805005901A480E
:102840001438016841F0020101600068694600F037
:1028500002000590282000900220CDE90105032008
:102860000390052004901148FFF714F8114C10480C
:1028700020604FF0806060604020C4E902050001E4
:102880002061400060618000C4E9060525622046A1
:102890006562FEF7A7FE08B1FEF732FCB464A663DA
:1028A00006B070BD003001404438024000040240D0
:1028B00040640240A40700202DE9F84F98461646D0
:1028C0008A460446FFF7E0F8814694F85100012853
:1028D0001ED1BAF1000F73D0002E71D094F85000C1
:1028E000012815D0012784F85070032084F8510086
:1028F00000256565C4F830A0A686E686A563A58791
:10290000E58765642564A068B0F5004F03D00CE04E
:102910000220BDE8F88F2068016821F040010160C5
:102920002068016841F4804101602068016849061F
:1029300003D4016841F040010160E068B0F5006F28
:10294000606803D048B3012E27D047E008B1012EBC
:102950001FD1206B21680088C86006E0206881686C
:10296000890709D5216B0988C160206B801C206311
:10297000E08E401EE0860CE0FFF786F8A0EB090130
:10298000414503D3B8F1FF3F03D035E0B8F1000F64
:1029900032D0E08E0028E1D123E0206B216800785E
:1029A000087306E02068816889070AD5216B0978D9
:1029B0000173206B401C2063E08E401EE0860DE01A
:1029C0002BE0FFF761F8A0EB0901414503D3B8F113
:1029D000FF3F03D010E0B8F1000F0DD0E08E0028CB
:1029E000E0D14A464146204602F082FB08B1202051
:1029F0006065A06830B109E084F8517084F85050E7
:102A0000032086E72068C1688068009084F85170D0
:102A100004F8505F60680028F3D0012079E70000D7
:102A200070B5044690F8510001281CD1C9B1C2B15B
:102A300094F85000012816D0012084F8500003209B
:102A400084F85100002565652163A286E286A563AE
:102A500065642564A587E587A068B0F5004F04D0BC
:102A60000DE0012070BD022070BD2068016821F0DA
:102A7000400101602068016841F480410160A16C5F
:102A800017480864A16C1748C863A16C1648C8644D
:102A9000A06C0565E38E2268216B0C32A06CFEF7FA
:102AA0000BFE30B1606D40F01000606584F850504E
:102AB000D7E720680168490603D4016841F0400166
:102AC000016084F850502068416841F02001416065
:102AD0002068416841F002014160002070BD0000A3
:102AE000815001088B5001085F5001087047704702
:102AF0004FF0E0210428086903D020F004000861A9
:102B0000704740F00400FAE710B5401EB0F1807F36
:102B100001D3012010BD4FF0E02460610F21601748
:102B200003F08FF90020A06107202061002010BD74
:102B300003480068C16821F00101C16070470000CE
:102B4000700A00207047704770B590F83C20012A49
:102B50002CD0012480F83C40022280F83D200368FC
:102B60005A689D6822F070060A6832435A60104B1A
:102B700002689A420ED0B2F1804F0BD00D4B9A42B0
:102B800008D00D4B9A4205D00C4B9A4202D00C4B08
:102B90009A4204D1496825F080031943916080F876
:102BA0003D40002180F83C10084670BD022070BDF9
:102BB000000001400004004000080040000C0040FC
:102BC0000040014010B5040003D094F83D0010B15E
:102BD00007E0012010BD002084F83C00204600F0F2
:102BE0001EF8022084F83D00211D206802F078FCC8
:102BF000012084F8460084F83E0084F83F0084F801
:102C0000400084F8410084F8420084F8430084F8CE
:102C1000440084F8450084F83D00002010BD704752
:102C200090F83D10012901D001207047022180F861
:102C30003D100168CA6842F00102CA6000680E498E
:102C400088420ED0B0F1804F0BD00C49884208D09A
:102C50000B49884205D00B49884202D00A49884274
:102C600004D1816801F00701062903D0016841F011
:102C70000101016000207047000001400004004095
:102C800000080040000C00400040014070472DE962
:102C9000F04104460068C66805694FF00007A907BF
:102CA00013D5B10711D5F91E0161012020772068E5
:102CB00080698007204602D0FFF7E8FF04E000F0BB
:102CC000A7F8204600F04CF92777680716D570075B
:102CD00014D521686FF00400086102202077206875
:102CE000806910F4407F204602D0FFF7CFFF04E058
:102CF00000F08EF8204600F033F92777280715D525
:102D0000300713D521686FF0080008610420207790
:102D10002068C0698007204602D0FFF7B7FF04E0B3
:102D200000F076F8204600F01BF92777E80616D564
:102D3000F00614D521686FF0100008610820207794
:102D40002068C06910F4407F204602D0FFF79EFF44
:102D500004E000F05DF8204600F002F92777E8076C
:102D600008D0F00706D021686FF001000861204606
:102D700000F088F9280608D5300606D521686FF0DE
:102D8000800008612046FFF7DDFE680608D5700662
:102D900006D521686FF040000861204600F07CF9FC
:102DA000A8060AD5B00608D521686FF02000086192
:102DB0002046BDE8F041FFF7C6BEBDE8F081000047
:102DC00010B586B0044614216846FDF7ADFA0D49EA
:102DD0002068884214D10C480021026842F00202A7
:102DE0000260006800F002000590012000900220BF
:102DF000CDE90101CDE9031069460448FEF74AFD1B
:102E000006B010BD0004004030380240000402400B
:102E1000704770B5044690F83C0000260D46012826
:102E20000FD0012084F83C006AB1042A1DD0082A82
:102E30002FD00C2A3FD00126002084F83C003046D9
:102E400070BD022070BD206802F0A8FB2068816977
:102E500041F0080181612068816921F004018161EC
:102E6000206881692A69114311E0206802F0BEFBE5
:102E70002068816941F4006181612068816921F4E1
:102E800080618161206881692A6941EA022181614A
:102E9000D2E7206802F0D6FB2068C16941F0080142
:102EA000C1612068C16921F00401C1612068C16964
:102EB0002A69114311E0206802F0F0FB2068C16923
:102EC00041F40061C1612068C16921F48061C16180
:102ED0002068C1692A6941EA0221C161ACE710B5E5
:102EE000040003D094F83D0010B107E0012010BDAC
:102EF000002084F83C00204600F01EF8022084F8F0
:102F00003D00211D206802F0EBFA012084F8460004
:102F100084F83E0084F83F0084F8400084F84100C3
:102F200084F8420084F8430084F8440084F84500A3
:102F300084F83D00002010BD08B5006806498842AD
:102F400008D10648016841F002010160006800F004
:102F50000200009008BD000000040040403802401C
:102F60007047000010B50446022249B104290ED072
:102F7000082913D094F84100012816D0012010BD73
:102F800094F83E000128F9D184F83E200FE094F82F
:102F90003F000128F2D184F83F2008E094F8400077
:102FA0000128EBD184F8402001E084F8412001227F
:102FB000206802F0E5FA12492068884203D1426C89
:102FC00042F400424264206888420ED0B0F1804F43
:102FD0000BD00C49884208D00B49884205D00B49D8
:102FE000884202D00A49884204D1816801F0070171
:102FF000062903D0016841F001010160002010BDE5
:10300000000001400004004000080040000C0040A7
:103010000040014030B504460D460068002202F031
:10302000AFFA174B41F2111120688A10984209D16A
:10303000036A0B4206D1036A134203D1436C23F4A3
:10304000004343642068036A0B4206D1016A1142BF
:1030500003D1016821F00101016001203DB1042D7F
:1030600008D0082D09D084F84100002030BD84F834
:103070003E00FAE784F83F00F7E784F84000F4E701
:103080000000014000680349884201D1FEF702BDFB
:1030900070470000000001407047704710B50446BB
:1030A0000068406994F84110C0F3C010212911D183
:1030B00080B12068143050E8001F21F0800140E802
:1030C0000012002AF5D1A06B08B1FEF72FF92046B7
:1030D00002F035FC2068406994F84210C0F380107B
:1030E000222911D180B12068143050E8001F21F04E
:1030F000400140E80012002AF5D1E06B08B1FEF76C
:1031000015F9204602F0F4FB002010BD10B50400B4
:1031100015D0242084F841002068C16821F40051B2
:10312000C160204600F080F90020606484F841000E
:1031300084F8420044F8300F6060207410BD012014
:1031400010BD7047F8B5016804460868CA684B6945
:1031500010F00F0F4FF0000559D003F0010602F4F4
:103160009077374365D0C10705D0D10503D5616C91
:1031700041F001016164410705D5D90703D0616CB5
:1031800041F002016164810705D5D90703D0616C64
:1031900041F004016164010707D502F020013143C9
:1031A00003D0616C41F008016164616C00293AD080
:1031B000800604D5900602D5204602F0CEFB20689A
:1031C0004069616CC0F38010090700D460B32046E9
:1031D00002F08EFB20684069400621D5206814303B
:1031E00050E8001F21F0400140E80012002AF5D10C
:1031F000E06BA8B172490165E06BFEF7E0F80028CA
:1032000011D0E06B016D01B0BDE8F04008478306C6
:103210000FD593060DD52046BDE8F84002F09DBBC2
:103220002046FFF78EFFF8BD2046FFF78AFF656452
:10323000F8BD266B2023012E7ED1C6067CD5D6068E
:103240007AD508684868009048694FF00206400641
:103250004DD5E26B106840684FF480770004000C95
:103260003AD0A18D814237D9E085D069B8422DD0BE
:1032700020680C3050E8001F21F4807140E80012F3
:10328000002AF5D12068143050E8001F21F0010118
:1032900040E80012002AF5D12068143050E8001FE1
:1032A00021F0400140E80012002AF5D184F84230B4
:1032B000256320680C3050E8001F21F0100140E821
:1032C0000012002AF5D1E06BFEF730F86663A08D9E
:1032D000E18D401A81B206E0A18D8142A8D1D0696A
:1032E000B842A5D166632046FFF7D7FEF8BDA08D92
:1032F000E18D401A81B2E08D0028F7D00029F5D089
:1033000020680C3050E8002F22F4907240E800272B
:10331000002FF5D12068143050E8002F22F0010270
:1033200040E80027002FF5D184F84230256320685B
:103330000C3050E8002F00E006E022F0100240E8D8
:103340000023002BF3D1CDE705062BD5150629D593
:1033500094F841002128C9D1A068B0F5805F01D15F
:103360002069B0B1206A411C216221680078486060
:10337000E08C401E0004000CE084B7D12068C168D6
:1033800021F08001C1602068C16841F04001C16046
:10339000F8BD206A0088C0F308004860206A801CDD
:1033A0002062E5E74006F3D55006F1D5CA6820460D
:1033B00022F04002CA6084F8413000F02BF9F8BDD9
:1033C000F557010870B5040004D094F841000025B9
:1033D00010B106E0012070BD84F84050204600F096
:1033E00045F8242084F841002068C16821F4005188
:1033F000C160204602F012FB2068016921F490416F
:1034000001612068416921F02A0141612068C16899
:1034100041F40051C1606564202084F8410084F8C3
:1034200042006563002070BD10B5044600680C4979
:10343000884214D10B48016821F0100101604FF45B
:10344000C0610948FEF782F9E06BFDF7CAFFA06B87
:10345000FDF7C7FFBDE810402520FEF7ACBB10BD4F
:103460000010014044380240000002402DE9F041C4
:1034700086B0064614216846FCF756FF304930688E
:10348000884259D12F480024016841F010010160A1
:10349000006800F0100005902A481438016841F0D7
:1034A000010101600068694600F0010005904FF4D9
:1034B000C06000900220CDE90104032003900720A2
:1034C00004902148FEF7E6F9214D20484FF00067AF
:1034D0002860C5E901744FF48068C5E903486C6150
:1034E000AC61EC612C6228466C62FEF77BF808B197
:1034F000FDF706FEF563AE63154D144860353030B8
:10350000E5E802074020A5E81101114845F81449F3
:103510006030AC61EC612C626C62FEF763F808B15C
:10352000FDF7EEFDB563002205212520AE63FEF711
:1035300061FB2520FEF750FB06B0BDE8F0810000DE
:1035400000100140443802400000024088640240FC
:103550009409002090F84230202B01D002207047BF
:1035600021B11AB10023036302F0DEBA01207047D3
:10357000704770472DE9F843044690F8410098469B
:1035800016460D46202802D00220BDE8F88385B1FA
:103590007EB100206064212084F84100FEF774FAB7
:1035A000A6848146E684A0682027B0F5805F02D01B
:1035B00003E00120E9E7206910B12E4600250EE066
:1035C00000260CE08021204602F0FEFAA8B9C6B120
:1035D00016F8010B21684860E08C401EE084E08C06
:1035E0004B464FF00002CDF800800028EAD14FF0A2
:1035F0004001204602F0E8FA40B184F8417003200F
:10360000C3E735F8020BC0F30800E3E784F8417024
:103610000020BAE770477047FF2070477047704737
:103620007047FF207047FF2070477047FF207047AA
:10363000704700F00DBF00207047FF2070474FF02B
:10364000FF307047704770470020704770477047E1
:1036500010B586B004001FD0002269460F48FEF75F
:103660000DFF002205A90D48FEF7E6FE9DF81700A4
:10367000E0709DF8151061709DF81620A27014235B
:1036800026F08EFD20709DF8000020719DF801004D
:1036900060719DF80200A07106B010BD2C070020DB
:1036A00001F05CBC01F074BC10B5012901D0022905
:1036B00003D1401E0C31C0B2C9B21A24491C11FBFF
:1036C00004F10A24B1FBF4F100EB900000EB93004D
:1036D00008441044594200EB4100401E00E0C01D68
:1036E0000028FCDB072190FBF1F201FB120000B97E
:1036F0000720C0B210BDFEE78EB0DFF8D8810025EC
:103700004FF47A76DFF8D09126F01AFC192273492B
:103710007048FFF71FFFD8F80000C16841F01001A2
:10372000C16008216E48FFF71DFC06F057FC3046CB
:1037300006F06AFCD9F820004C46804700F074FC83
:10374000032706E07F1EA06BFFB2804784F830009D
:103750001FB194F830000028F4D1FDF7F6FB0022E9
:1037600008A96048FEF78AFE002269465D48FEF718
:1037700063FE9DF802309DF801209DF8031001A81A
:10378000FDF7E6FB88B18DF804508DF805509DF8E3
:1037900003008DF806009DF801008DF807009DF8E4
:1037A00002008DF80800ADF80A509DF804004E495B
:1037B00084F835009DF8050008709DF806009DF816
:1037C0000310884216D19DF807009DF80110884229
:1037D00010D19DF808009DF8021088420AD194F893
:1037E000300018B9A16CBDF80A008847BDF80A007E
:1037F000608617E094F8300010B9A16C002088476B
:1038000065869DF803008DF806009DF801008DF88F
:1038100007009DF802008DF80800ADF80A5001A8D5
:10382000FDF702FC1EF040F920698047A06980473F
:10383000FDF732F9FDF796F900F0FEFC4FF4784001
:10384000002100904FF48C73F022084600F073FCC6
:103850000A2006F0D9FB322000F0FAFD1824CDE949
:1038600000544FF6FF773B4620A28C21482002955A
:1038700000F084FE04200346009002221DA103A84C
:1038800002F0B8FACDE900543B4603AABC2122203D
:10389000029500F073FE304606F0B6FBBD23F02221
:1038A00074210020009500F046FC15F083FB1AF00F
:1038B0009FFC1AF0C1FC25F087FF1EF0C7F827F027
:1038C00081F9002026F05AFA4FF4FA701DF04EFFED
:1038D0001AE700004C09002054000020540A002080
:1038E000040800202C0700201001002057656C639D
:1038F0006F6D65004F562D576174636820562564BF
:103900002E25642E2564000070B586B001F08EFA75
:103910008068534988427DD1524D6846296888475E
:103920004F4C9DF80520103C6078824208D06270B0
:103930004DA102A802F05EFA02A9E06916F006FAAB
:103940009DF804202078824208D0227048A102A865
:1039500002F050FA02A9606916F0F8F9404E9DF89D
:103960000230E0789C36834214D0E3709DF800006A
:103970002071A2783FA102A802F03CFA02A9E06AF5
:1039800016F0E4F9207906EB800050F8041C206B57
:1039900016F0DCF99DF80120A078824216D0A270C2
:1039A0009DF80230E3709DF80000207131A102A85B
:1039B00002F020FA02A9E06A16F0C8F9207906EBB5
:1039C000800050F8041C206B16F0C0F9297F607944
:1039D00081420CD06171206A0FF0E9FD627928A163
:1039E00002A802F007FA02A9A06A16F0AFF96A8EDF
:1039F000A089824208D0A28123A102A802F0FAF98C
:103A000002A9E06B16F0A2F995F94D1094F909009E
:103A1000814200E022E00DD06172606C0FF0C7FDC2
:103A200094F9092018A102A802F0E4F902A9E06CB7
:103A300016F08CF995F94E1094F90A0081420DD0D8
:103A4000A172606D0FF0B3FD94F90A200EA102A8D7
:103A500002F0D0F902A9A06D16F078F906B070BD99
:103A6000AC0100205400002025303264000000002A
:103A7000253264002532642D2530326400000000B8
:103A800025326425250000002564000010B586B0AD
:103A9000044614216846FCF747FC20890090012069
:103AA000019002900220039069462068FDF7F2FE23
:103AB0006089009069466068FDF7ECFE06B010BDB5
:103AC00070B506460824002501F096FA13E0680652
:103AD000050E0021304601F07DFA022006F0A1FA21
:103AE0000121304601F076FA012006F09AFA3046BC
:103AF00001F079FA0543641EE4B2E8D200213046B1
:103B000001F068FA304601F095FA284670BD10B50C
:103B10000446002101F085FA012006F082FA012115
:103B2000204601F057FA012006F07BFA00212046DA
:103B300001F050FABDE81040012006F072BA000012
:103B400070B50C460646082519E000BF01F042FAA0
:103B5000022006F066FA04F08001304601F061FAB6
:103B6000012006F05EFA6006040E012006F059FA04
:103B70000121304601F02EFA012006F052FA6D1EA6
:103B8000EDB24FF000013046E0D201F023FABDE87B
:103B90007040022006F045BA10B50446012101F03C
:103BA00040FA012006F03DFA0121204601F012FA08
:103BB000012006F036FA0021204601F00BFABDE89C
:103BC0001040022006F02DBA10B50446012101F084
:103BD00028FA022006F025FA0121204601F0FAF920
:103BE000012006F01EFA0021204601F01AFA0120F9
:103BF00006F017FA0021204601F0ECF9BDE810406C
:103C0000012006F00EBA10B50446002101F0E2F9D9
:103C1000022006F006FA0021204601F002FA0120F7
:103C200006F0FFF90121204601F0D4F9012006F049
:103C3000F8F90121204601F0F4F9BDE81040012017
:103C400006F0EFB970B50546052401F0D5F901215C
:103C5000284601F0BFF905E0641EA4B2012006F079
:103C6000E0F984B1284601F0BEF90028F4D12846D5
:103C700001F0E0F90021284601F0ACF9022006F03D
:103C8000D0F9002070BD284601F0D4F92846FFF78E
:103C9000BAFF012070BD00002DE9F0411D46174616
:103CA0000C468046069EFFF78FFF6006010E4046D9
:103CB000FFF746FF4046FFF7C5FF28B14046FFF734
:103CC000A2FF0120BDE8F08139464046FFF738FFEA
:103CD0004046FFF7B7FF4046FFF776FF012000EBB5
:103CE0004400C1B24046FFF72BFF4046FFF7AAFF52
:103CF00000246F1E0AE000BFFFF7E2FE3055BC4211
:103D000002DA4046FFF703FF641CE4B2AC424046CF
:103D1000F2D3FFF741FF4046FFF775FF0020D1E7E0
:103D200070B516460C460546FFF74EFF6006010EBD
:103D30002846FFF705FF2846FFF784FF314628464F
:103D4000FFF7FEFE2846FFF77DFF2846FFF73CFF02
:103D5000012000EB4400C1B22846FFF7F1FE2846DF
:103D6000FFF770FF2846FFF7ABFE04462846FFF733
:103D700013FF2846FFF747FF204670BD2DE9F041AD
:103D80001D4617460C468046069EFFF71DFF60063F
:103D9000010E4046FFF7D4FE4046FFF753FF28B11F
:103DA0004046FFF730FF0120BDE8F081394640462C
:103DB000FFF7C6FE4046FFF745FF002408E0315DEF
:103DC0004046FFF7BDFE4046FFF73CFF641CE4B2EF
:103DD000AC42F4D34046FFF716FF012006F021F96C
:103DE0000020E1E72DE9F0411D4616460C46074646
:103DF000FFF7EAFE6006010E3846FFF7A1FE3846DF
:103E0000FFF720FF28B13846FFF7FDFE0120BDE88F
:103E1000F08131463846FFF793FE3846FFF712FF30
:103E200029463846FFF78CFE3846FFF70BFF384629
:103E3000FFF7E9FE012006F0F4F80020E7E70000B4
:103E40001CB50024114D124E124FDFF84C808DF836
:103E500000408DF8044001230022694628681DF0C7
:103E6000C7FC10B9052000F0F3FA0123002201A9D4
:103E700030681DF0BDFC20B93C8098F8000000F0CF
:103E8000E7FA0A201DF072FCE5E700003C00002084
:103E90004400002050000020A201002038B5154C3D
:103EA000154900252088401C80B22080097801EB4C
:103EB0008101B0EB410F08D110488DF8005001236B
:103EC0000022694600681DF0F1FC0D482188007849
:103ED00000EB8000B1EB400F0AD101208DF800000B
:103EE0000346084825800022694600681DF0DEFC74
:103EF00038BD000050000020680300203C00002076
:103F000069030020400000202DE9F0410025124CFB
:103F1000124F012608B1267001E0207820B101215E
:103F20003846FDF7A7FD58B103201DF01FFC012105
:103F30003846FDF79FFD00B126702846BDE8F081A8
:103F400003201DF013FC01213846FDF793FD0028E6
:103F5000F3D101252070F0E7AC04002000000240FE
:103F60000EB50024DFF8A8B0DFF8A880DFF8A8902D
:103F70002A4F8DF800408DF808408DF80440264601
:103F80002546A24601215846FDF774FD48B100269A
:103F900035460020FFF7B8FF012824D0022832D18F
:103FA00014E06EB1002DF4D11DF0EDFBA0EB0A0082
:103FB00040F6B8318842ECD3012500F079FFE8E7FC
:103FC000012600251DF0DFFB8246E2E700F02EFF10
:103FD00080681349884205D112480123002202A9B2
:103FE00000680EE002208DF80000012300226946DF
:103FF000D8F800001DF05AFC0123002201A9D9F8CD
:1040000000001DF053FC3C700A201DF0AFFBB9E727
:104010000000024038000020440000200100002081
:10402000AC0100204000002000B587B01421684694
:10403000FCF77AF90E48016841F00101016000685F
:104040004FF4041100F0010005900120CDE90001BA
:10405000029069460748FDF71DFC00220521062055
:10406000FDF7C8FD0620FDF7B7FD07B000BD000055
:1040700030380240000002402DE9F04104461D4660
:1040800016460F462A2000F0A7FA204600F094FAC0
:10409000304600F091FA2B2000F09EFA384600F0EE
:1040A0008BFA284600F088FABDE8F0412C2000F099
:1040B00093BA0000034900200968C8630821014839
:1040C000FEF7A8BF0408002070B55D1A141A641C1E
:1040D0006D1C143314316C439BB289B2049EFFF7FC
:1040E000CBFF0D4D4FF40060E8602868016841F493
:1040F00000610160A2B231462846FEF791FC0748F4
:10410000006841680029FCD10020E8602868016847
:1041100021F40061016070BD4C070020A40700205D
:1041200010B514460B460246FFF7A6FF2046BDE831
:10413000104000F041BA2DE9F04780461F4603F1D8
:10414000130083B21646501E82B20C4601F11400D1
:1041500081B24046DDF82090FFF78EFF0AE0454629
:1041600004E0484600F028FA6D1CADB2B542F8D321
:10417000641CA4B2BC42F2D3BDE8F087F0B587B0AE
:1041800014216846FCF7D0F82748016841F0040183
:104190000160016801F004010591016841F002012C
:1041A0000160016801F002010591016841F0080118
:1041B0000160016801F008010591016841F0010109
:1041C00001600068012400F0010005901020CDE995
:1041D0000004164E0325694603953046FDF75AFB49
:1041E000012210213046FDF74AFC2603104FCDE98D
:1041F0000064694638460395FDF74CFB01223146C1
:104200003846FDF73CFC0420CDE90004094C694622
:1042100003952046FDF73EFB012204212046FDF7D1
:104220002EFC07B0F0BD0000303802400004024010
:1042300000080240000C024010B56EA16E4801F06B
:10424000D9FD82B24FF6FF736B496C48FFF792F9C4
:10425000FFF794FF002204216948FDF710FC694C28
:10426000002210212046FDF70AFC642005F0CCFE58
:10427000012210212046FDF702FC642005F0C4FE57
:10428000112000F0A9F9782005F0BEFE362000F0DC
:10429000A3F9C02000F0B6F93A2000F09DF90520FE
:1042A00000F0B0F9B22000F097F90C2000F0AAF964
:1042B0000C2000F0A7F9002000F0A4F9332000F052
:1042C000A1F9332000F09EF9B72000F085F93520E0
:1042D00000F098F9BB2000F07FF9192000F092F966
:1042E000C02000F079F92C2000F08CF9C22000F0F9
:1042F00073F9012000F086F9C32000F06DF9122057
:1043000000F080F9C42000F067F9202000F07AF96D
:10431000C62000F061F90F2000F074F9D02000F001
:104320005BF9A42000F06EF9A12000F06BF9E02009
:1043300000F052F9D02000F065F9042000F062F995
:104340000D2000F05FF9112000F05CF9132000F05F
:1043500059F92B2000F056F93F2000F053F9542072
:1043600000F050F94C2000F04DF9182000F04AF907
:104370000D2000F047F90B2000F044F91F2000F059
:1043800041F9232000F03EF9E12000F025F9D0208A
:1043900000F038F9042000F035F90C2000F032F973
:1043A000112000F02FF9132000F02CF92C2000F040
:1043B00029F93F2000F026F9442000F023F951208C
:1043C00000F020F92F2000F01DF91F2000F01AF94D
:1043D0001F2000F017F9202000F014F9232000F02E
:1043E00011F9212000F0F8F8BDE81040292000F074
:1043F000F3B80000313233004C0800204C09002093
:10440000000C02400004024008210148FEF7AABD4A
:104410000408002010B5282000F0DEF8142005F074
:10442000F3FD102000F0D8F8BDE81040782005F02A
:10443000EBBD10B5112000F0CFF8782005F0E4FDB9
:10444000292000F0C9F8BDE81040142005F0DCBDBB
:10445000411F5F2909D84FF4967110FB01F06421C8
:10446000B0FBF1F001490968C863704704080020F7
:104470002DE9FF4F81B00446DDF83C9000904FEAF3
:1044800059074FF00008780700D0012000EBD70053
:1044900000FB09FB203AD0B20390029802994844ED
:1044A000401E83B2E019401E82B22046FFF7E4FDB1
:1044B000002553E0B9F10C0F2AD0B9F1100F2ED01E
:1044C000B9F1180F2ED0B9F1200F49D1274903981F
:1044D00001EB8010002610F805A0109800284FF07E
:1044E000010000FA06F000EA0A0022D020B12046BE
:1044F000049A0299FFF714FE641C0098A4B2201AD3
:10450000B84225D10298009C401C80B2029023E062
:104510000398174900EB400001EB8000DAE71549EA
:10452000039803E00398144900EB400001EB0010EE
:10453000D0E708B1049800E00E9800F03DF808F1CB
:104540000100C0B2B0FBF7F1804607FB118050B10B
:10455000761CF6B2082EC0D36D1CADB25D45A9D352
:1045600005B0BDE8F08F4FF00008F5E750D704081C
:104570001CBB040890BF040880C504082DE9FE4F49
:104580009946DDE90D6714468A460546DDF8308018
:104590000CE0CDF800804B4651462846CDE9016736
:1045A000FFF766FF05EB560085B2641C2278002AEF
:1045B000EFD1BDE8FE8F000008B5010A8DF80010AC
:1045C0008DF801000123022269460248FEF774F9C2
:1045D00008BD00004C07002070B5094D06464FF499
:1045E0008054002221462846FDF749FA304600F063
:1045F00009F821462846BDE870400122FDF73FBA80
:104600000008024001B501231A4669460148FEF739
:1046100053F908BD4C07002010B5FEF789FA4FF09A
:10462000E024206920F00200206114494FF000705E
:1046300008600817124909680861FCF76FFEFDF76A
:104640000BFB1048016841F00401016072B600F0F4
:104650001DF830B90C48007818B901210846FDF75B
:1046600001FB62B6BFF36F8FFEF76AF800F0DAFE67
:10467000206940F00200206110BD000004ED00E060
:10468000700A00200070004002000020074810B5AA
:10469000007840B901210648FDF7ECF918B105484A
:1046A0000078002800D0012010BD0000010000208B
:1046B0000000024003000020FEF742B810B5FEF7EC
:1046C00037FA05496FF0010009680861BDE810403C
:1046D0001920FDF763BA0000700A002008B5002019
:1046E0000D4C8DF800004FF47A75002010F0EEFAB2
:1046F000A84205D200231A466946206C1DF0D6F860
:104700001BF014FF052801D2052002E0142800D96F
:1047100014201DF02BF8E8E70400002008B501275D
:10472000DFF87080DFF870A0DFF870B0DFF870900D
:104730001C4C1D4E002500BF94F8350018B300F046
:1047400003F910B184F834701DE094F834000128A6
:1047500017D184F8345000F069FB8168414509D0D5
:1047600000F064FB8168514504D000F05FFB816874
:10477000594506D1012300226946D9F800001DF0F1
:1047800095F884F8345035704FF496701CF0EEFFB5
:10479000D2E70000AC0100208C020020A80300201A
:1047A0004000002054000020020000207CB5144688
:1047B0000D4606466B4606223B21682000F048F86D
:1047C00000280BD1BDF8001049BA3180BDF80210A5
:1047D00049BA2980BDF8041049BA21807CBD3EB594
:1047E0000C46054601AA694602A8FFF7DFFFBDF89F
:1047F000000010FB00F1BDF8040010FB001000EEFB
:10480000100AB8EEC00A01F0DDFBBDF90800F0EEB9
:10481000400A00EE100AB8EEC01A81EE200A01F03C
:1048200021FBB1EE400A84ED000ABDF9000000EE64
:10483000100ABDF90400F8EEC00A00EE100AB8EE46
:10484000C01A80EE810A01F00DFB85ED000A3EBD25
:104850002DE9F04106461D4614460F462048FFF755
:10486000B3F97006010E1E48FFF76AF91C48FFF7FE
:10487000E9F928B11A48FFF7C6F90120BDE8F0812F
:1048800039461748FFF75CF91548FFF7DBF914487C
:10489000FFF79AF9012000EB4600C1B21048FFF77C
:1048A0004FF90F48FFF7CEF90BE00D48012C0FD060
:1048B000FFF706F928700A48FFF729F9641EE4B2E9
:1048C0006D1C002CF1D10648FFF79DF90020D5E7BB
:1048D000FFF7F6F828700248FFF75EF9EEE70000F0
:1048E000A004002048216B2000F004B828216B2090
:1048F000AFF3008070B504460D461248FFF764F927
:10490000D0211048FFF71CF90E48FFF79BF970B94A
:1049100021460C48FFF714F90A48FFF793F9294696
:104920000848FFF70DF90748FFF78CF920B1054853
:10493000FFF769F9012070BD0248FFF764F9002014
:1049400070BD0000A00400201CB501A96846FFF757
:1049500046FF00984FF07C5188420ADC4FF03F42FE
:10496000904206D80198884203DC904201D8012089
:104970001CBD00201CBD00007FB50024154800941C
:10498000019402941249039401604FF48031C0E90C
:1049900001140461047680F820400F49C0E90A142C
:1049A0000125C561C46080F830404561FCF75CFCBE
:1049B00008B1FCF7A5FB0095CDE90154694605480F
:1049C000FCF7A0FB002801D0FCF79AFB7FBD00009C
:1049D00000200140E40600200100000F114808B546
:1049E000016841F4800101600068002200F4800049
:1049F000009005213A20FDF7FDF83A20FDF7ECF88C
:104A0000002205214420FDF7F5F84420FDF7E4F8E5
:104A1000002205214620FDF7EDF8BDE808404620BC
:104A2000FDF7DAB83038024001F02AB90D4808B570
:104A3000016841F004010160016801F00401009186
:104A4000016841F001010160016801F0010100917C
:104A5000016841F002010160006800F0020000906E
:104A600008BD00003038024030B587B014216846D8
:104A7000FBF75AFC2848002426490594C0E9001495
:104A80007F218160FF21C0E9031444618461FDF747
:104A90001FFD08B1FCF734FB1F48FDF777FC1F49E9
:104AA0004FF48000086000211B48FDF765FC45F2CB
:104AB0005005A8422BD011208DF8000059208DF808
:104AC000010055208DF80200039401226946124826
:104AD0000494FDF7B9FD08B1FCF712FB07208DF82F
:104AE000140005208DF8150021208DF816002320D4
:104AF0008DF81700012205A90748FDF759FD08B1F7
:104B0000FCF7FEFA2A4600210348FDF73AFC07B0FD
:104B100030BD0000002800402C070020143C01405C
:104B2000104810B50E4901604FF4827141600021B8
:104B300002228160C0E90312012242615202C0E9EF
:104B400006210162416281620A21C162FDF703FE12
:104B5000002803D0BDE81040FCF7D2BA10BD000019
:104B6000003001404C07002010B58AB000240794A3
:104B70001C2168460894FBF7D7FB164814490160CE
:104B80006321C0E901144FF49671C0E903148461F4
:104B9000FEF7A5F908B1FCF7B3FA079407A90D4889
:104BA0000894FDF7D1FF08B1FCF7AAFA6020CDE91F
:104BB000000402940822694606480494FEF729F985
:104BC00008B1FCF79DFA0348FEF7FAF80AB010BDE9
:104BD00000040040040800200C4810B50A49016098
:104BE0004FF416514160002181600C22C160C0E980
:104BF00004128161C161FEF7E5FB002803D0BDE826
:104C00001040FCF77DBA10BD001001404C09002097
:104C1000FEE7000086B0364C00254FF47A76207807
:104C2000002861D0257033488DF8045001230022FC
:104C300001A900681CF03AFE2F4930A001F0CAF823
:104C400031A12D48FBF782FB78B130A12A48FBF750
:104C50007DFB70B130A12848FBF778FB80B1264876
:104C6000FBF76DFB142829D03AE02DA001F0B2F833
:104C700036E004231A4602212BA001F0ABF82FE006
:104C80002E4F0022391D2E48FDF7F8FB0022394631
:104C90002B48FDF7D1FB2B48408E3883BA787978C2
:104CA00029A001F097F8BB797A7939792AA001F027
:104CB00091F8398B2EA001F08DF811E00295039543
:104CC00002A90D48049500F097FB2D48007838B1F3
:104CD0002CA102A8FBF73AFB10B9074800F000FD31
:104CE00019210548FBF720FB30461CF03FFD96E7F5
:104CF0000000002044000020540A00205265635345
:104D000074723A25730D0A004F5600004F562B5609
:104D1000455253494F4E00004F562B53454E4400C9
:104D20004F4B0D0A0000000056455253494F4E3D6F
:104D30005625642E25642E25640D0A00B80A00202D
:104D40002C07002054000020646174613A2532640D
:104D50002D253032640D0A0074696D653A253032B4
:104D6000643A253032643A253032640D0A0000007E
:104D70005374657020746F6461793A25640D0A007C
:104D8000100100204F562B5354000000FEE7000096
:104D900038B5114C207E002813D020461DF0DFF9D5
:104DA000207E012570B104EB800050F8044C20688F
:104DB00080470095A068002364220068062119F04E
:104DC00001FF38BD054904481DF0D7F904490248E0
:104DD0001DF0D3F9024CEAE7EC0A00207002002033
:104DE0007C02002038B5104C207E00281BD002E049
:104DF0000D481DF0B4F9207E0128F9D8C0B204EBAB
:104E0000800050F8040C0068804701200090207E4C
:104E1000002304EB8000642250F8040C0621806813
:104E2000006819F0CFFE38BDEC0A00200448017E6E
:104E300021B100EB810050F8040C7047002070474E
:104E4000EC0A002038B50E490446087E052815D224
:104E500028B101EB800050F8040C406880472146DF
:104E600007481DF08AF92068804701200090A0685B
:104E7000002364220068062119F0A4FE38BD00005A
:104E8000EC0A0020084910B50020087607490648BA
:104E90001DF073F9054C20688047A0680068BDE8E4
:104EA00010400FF075BF0000EC0A002070020020D7
:104EB000002208210148FCF7E2BD0000000002408A
:104EC000010901EB810100F00F0000EB4100C0B2CD
:104ED0007047002102E00A38C0B2491C0A28FAD201
:104EE000090740EA116070472DE9F0410446006867
:104EF0000025C168490618D4C16841F08001C1602D
:104F0000FCF7C2FD06464FF47A78042707E000BF9D
:104F1000FCF7BAFD801B404501D967770125206861
:104F2000C068400601D4002DF2D02846BDE8F081CB
:104F300070B5044600680025C16821F08001C16099
:104F400020688068800606D42046FDF7DDFB10B19E
:104F5000042060770125284670BD000008B50023B5
:104F600000938DF802208DF801108DF803001423B2
:104F700025F016F98DF80000002269460348FDF778
:104F800017FB002801D0FCF7BBF808BD2C07002058
:104F900070B586B00D460646144614216846FBF7E8
:104FA000C3F98DF800608DF801508DF802400022A1
:104FB00069460448FDF748FB002801D0FCF7A0F83B
:104FC00006B070BD2C0700200148FDF71DBA000097
:104FD0002C0700204289406811B18169114300E02B
:104FE00011048161704710B501890068FCF742FD2A
:104FF000012800D0002010BD10B586B00446142151
:105000006846FBF791F9208900900020019001206B
:1050100002900220039069462068FCF73BFC06B032
:1050200010BD0289006811B18169114300E01104CB
:105030008161704710B586B0044614216846FBF7BD
:1050400073F9208900901120019000200290022025
:10505000039069462068FCF71DFC06B010BD10B532
:10506000806B01684A6822F003024A60416D41F09A
:1050700010014165012180F85110FDF76BFB10BD57
:1050800010B5806BFDF733FD10BD38B50546846B58
:10509000FCF7FAFC024628680068C00523D42068A3
:1050A000416821F0200141602068416821F002013F
:1050B00041606421204600F01BF818B1606D40F09B
:1050C00020006065A068002118B92068C268806867
:1050D0000090E186012084F85100606D18B12046EF
:1050E000FDF738FB38BD2046FDF700FD38BD000058
:1050F000F8B515460E460B460092044601220221E1
:1051000000F02CF8A0B9134813490068B0FBF1F087
:105110004FF47A71484300906068B0F5827F0DD1FA
:105120003346002280212046009500F017F870B128
:10513000606D40F0200060650320F8BD009830B13C
:10514000401E009020688068C0430006F6D500200D
:10515000F8BD00007C04002000366E012DE9F84304
:105160001E46914688460446089DFCF78DFC401B70
:10517000351AFCF789FC074626480068C0F3CB3097
:1051800068430AE0701C09D0FCF77EFCC01BA842F3
:105190000FD275B10098B8B3401E009020688168A6
:1051A00038EA010033D000214945EBD10020BDE8A9
:1051B000F8832068416821F0E00141606068B0F543
:1051C000827F0BD1A068B0F5004F02D0B0F5806FA0
:1051D00004D12068016821F040010160A06AB0F5A7
:1051E000005F09D12068016821F400510160206846
:1051F000016841F400510160012084F85100002051
:1052000084F850000320D2E7FFE70025C6E701211C
:10521000CAE700007C04002008B500200D4C8DF882
:10522000000000231A46694620681CF0E1FA68B9BC
:105230009DF80000012802D0022805D006E0FFF703
:10524000A7FDFFF7F3FD01E0FFF7CCFD0A201CF0FE
:105250008DFAE6E7380000201CB5134D134C4FF4CF
:10526000FA7600231A4601A928681CF0C1FAB8B9D9
:10527000A06A80472077401E632801D9002020774C
:1052800094F8300010B9606C8047608603208DF878
:105290000000074801230022694600681CF006FB55
:1052A00030461CF063FADCE7480000205400002080
:1052B0004C0000201FB50024DFF810B1DFF810818A
:1052C000444F8DF808404FF0010A00BF4FF0FF3304
:1052D000002202A9DBF800001CF08AFA0028F5D1B0
:1052E0003D483E490026048041F205000860062042
:1052F000FCF754FC0820FCF751FC2820FCF74EFC7E
:1053000037480470374804703748FDF7FFFEFEF752
:10531000D1FEFFF77FF8FBF73DFC98F830004546DB
:1053200028B995F8350010B9FFF7DCFA012624F00A
:1053300007FEDFF8B890A8460025FFF76DF998F84A
:10534000301081B998F8350068B1387858B1FFF756
:10535000FBFA30B198F8341029B988F834A0012547
:1053600001E088F83440FFF791F900B90DB1012050
:1053700000E0002089F800403C700028DCD025F0D7
:1053800021FCFFF729FC192216491748FEF7E2F81D
:1053900015480068C16841F01001C1600EB1FFF707
:1053A000A5FAFFF746F8FFF72FF811480078FFF746
:1053B0004FF8FBF7F3FB0F488DF800A00123002204
:1053C000694600681CF072FA80E700004000002087
:1053D000540000200200002050000020143C014036
:1053E00000000020540A00204C0900200100002089
:1053F000A201002048000020002202E08B54521C31
:10540000D2B2835C3D2BF9D1704710B54FF0E0204C
:10541000006925F0DBFA012803D0BDE8104024F034
:105420009BBF10BD30B593B030216846FAF77CFFC2
:1054300014210CA8FAF778FF1D480024016841F0F8
:1054400080510160006800F0805011901948016897
:1054500041F4404101600068102100F44040119087
:105460000A2000900120CDE903010225CDE90505C0
:105470000820CDE907406420CDE9090504200B9000
:105480006846FCF7C3FD08B172B6FEE70F20CDE910
:105490000C054FF48050CDE90E4003210CA8109468
:1054A000FCF7A8FC002801D072B6FEE713B030BDAF
:1054B00040380240007000400448016841F4700127
:1054C00001600249024880390860704788ED00E0B9
:1054D000000001080148FDF7DABB0000700A002057
:1054E000F0B502681F4B204C204D214E4FF0804CF0
:1054F000984207D0604505D0A04203D0A84201D011
:10550000B04203D122F070074A683A43984210D063
:1055100060450ED0A0420CD0A8420AD0B04208D0BC
:10552000144CA04205D0144CA04202D0134CA0420F
:1055300003D122F44074CA6822434C6922F08002ED
:1055400022438C68C4620C688462984201D1096964
:105550000163016841F004010160012141610260C1
:10556000F0BD0000000001400004004000080040C1
:10557000000C004000400140004401400048014050
:1055800010B501F01F030121046A99408C430462A5
:10559000016A9A401143016210BD000030B5036AF0
:1055A000026A22F0010202624268846924F07305F3
:1055B0000C682C4323F002058B682B430A4DA8424C
:1055C0000BD123F00805CB6822F440722B434D69C0
:1055D00023F0040315438A692A43426084614968C1
:1055E0004163036230BD00000000014030B5026A33
:1055F000036A23F010030362436884690D6824F48E
:10560000E64444EA05248D6822F0200242EA0512AD
:105610000B4DA8420ED1CD6822F0800242EA05125D
:105620004D6923F4406343EA85038D6922F040020B
:1056300043EA85034360846149688163026230BD47
:105640000000014030B5036A026A22F480720262EF
:105650004268C46923F4007324F073050C682C437A
:105660008D6843EA05230C4DA8420ED1CD6823F482
:10567000006343EA05234D6922F4405242EA0512D1
:105680008D6923F4806342EA05124260C46149686F
:10569000C163036230BD00000000014030B5046A00
:1056A000026A22F4805202624268C3690D6823F4E0
:1056B000E64343EA05238D6824F4005444EA0534A4
:1056C000064DA84204D14D6922F4804242EA851277
:1056D0004260C36149680164046230BD000001405A
:1056E0002DE9F041017A427A303901EB81016FF006
:1056F0002F0505EB4101344C114411F0FF03E37019
:10570000817AC27AA1F1300101EB810105EB4101FF
:105710001144C9B26170027B467BA2F1300202EBF8
:10572000820205EB42023244D2B2A270867BC77B72
:10573000A6F1300606EB860605EB46063E44F6B2B9
:105740002671077C90F811C0A7F1300707EB870797
:1057500005EB47076744FFB2677190F813C0807C80
:10576000A0F1300000EB800005EB40006044C0B2C7
:10577000A07126D0632B24D219B30C2921D8134D44
:1057800002294D5D03D15FEA837C00D11D25C2B1A2
:10579000AA4216D8172E14D83B2F12D83B2810D85F
:1057A0001846FFF7DBFBA27961792079FFF7F0FB60
:1057B0000220FBF7BBFB06A000F00CFB0020BDE8BD
:1057C000F0810120FBE70000D40A00209BAF030812
:1057D00054494D455345544F4B0D0A0010B51DF02B
:1057E00071FA002805D0D0E90021BDE81040084634
:1057F000104710BD10B5806B0021C185FDF7A1FCDD
:1058000010BD70B5846B2068406994F84110C0F3F6
:10581000C0100025212904D118B1E584204600F0EC
:105820008EF82068406994F84210C0F38010222955
:1058300004D118B1E585204600F05AF8606C40F0BC
:10584000100060642046FDF77CFC70BD10B5014679
:10585000806B096809684FF00002C9052ED4C28523
:1058600001680C3151E8003F23F4807341E80034B3
:10587000002CF5D10168143151E8003F23F00103F9
:1058800041E80034002CF5D10168143151E8003FA3
:1058900023F0400341E80034002CF5D1202180F8AA
:1058A0004210016B012909D101680C3151E8003F18
:1058B00023F0100341E80034002CF5D14263016B62
:1058C000012902D0FDF754FE10BD818DFDF7E5FBE7
:1058D00010BD10B5806B01214163016B012902D01D
:1058E000FDF747FE10BD818D4908FDF7D6FB10BDC1
:1058F00001680C3151E8002F22F4907241E8002336
:10590000002BF5D10168143151E8002F22F001027B
:1059100041E80023002BF5D1016B012909D1016871
:105920000C3151E8002F22F0100241E80023002B37
:10593000F5D1202180F842100021016370470168F1
:105940000C3151E8002F22F0C00241E80023002B67
:10595000F5D1202180F84110704708B590F8421029
:10596000222901D0022008BD82684FF480539A4258
:1059700001D1016921B1816A9A421BD04AB10AE082
:105980000268816A5268C2F308020A80816A891C2F
:1059900008E0026972B10268526802F07F020A7080
:1059A000816A491C8162C18D491E0904090CC185A7
:1059B00003D01BE002685268F1E70168CA6822F070
:1059C0002002CA600168CA6822F48072CA60016855
:1059D0004A6922F001024A61202180F84210002128
:1059E0004163026B012A03D0FDF7C2FD002008BD10
:1059F000016301680C3151E8002F22F0100241E8E8
:105A00000023002BF5D101680A68D20602D50A6886
:105A100049680091818DFDF740FBE7E770B50446CA
:105A200000680169E26821F4405111430161216974
:105A3000A068E26908436169114308432168CA68A4
:105A400049F20C639A430243CA6020684169A26923
:105A500021F440711143416131492068884202D0EC
:105A60003049884202D1FCF78FFA01E0FCF77CFA5A
:105A7000E2690023192164253226B2F5004F6268DD
:105A800028D0A0FB0101930F9200FAF703FC014616
:105A9000B0FBF5F06FF01802504301EB800006EB0D
:105AA0000010B0FBF5F000F0F002B1FBF5F002EBF6
:105AB0000012B1FBF5F06FF01803584301EB8000C2
:105AC00006EB0010B0FBF5F000F00F002168104469
:105AD000886070BDA0FB010192185B41FAF7DAFB08
