:020000040800F2
:100000009006002039020008FF120008CD120008F7
:10001000FD1200085F050008A91300080000000099
:1000200000000000000000000000000003130008B2
:100030006105000800000000011300080513000816
:10004000530200085302000853020008530200083C
:10005000530200085302000853020008530200082C
:10006000530200085302000853020008530200081C
:10007000530200085302000853020008530200080C
:100080005302000853020008530200080000000059
:100090000000000000000000000000005302000803
:1000A00053020008530200085302000853020008DC
:1000B00053020008530200085302000853020008CC
:1000C00053020008530200085302000853020008BC
:1000D0005302000853020008530200080000000009
:1000E00053020008530200085302000800000000F9
:1000F00000000000000000000000000053020008A3
:1001000000000000530200085302000853020008D8
:1001100000000000000000000000000000000000DF
:10012000530200085302000853020008530200085B
:100130005302000800000000000000000000000062
:100140000000000000000000000000005302000852
:10015000530200085302000853020008530200082B
:1001600053020008530200080000000000000000D5
:10017000000000000000000000000000000000007F
:100180000000000053020008000000000000000012
:10019000530200085302000800F002F800F03CF897
:1001A0000AA090E8000C82448344AAF10107DA45D2
:1001B00001D100F031F8AFF2090EBAE80F0013F0E8
:1001C000010F18BFFB1A43F001031847F02300008A
:1001D00010240000103A24BF78C878C1FAD852071A
:1001E00024BF30C830C144BF04680C6070470000B1
:1001F0000023002400250026103A28BF78C1FBD830
:10020000520728BF30C148BF0B6070471FB502F0CE
:100210003AF91FBD10B510BD00F068F91146FFF79F
:10022000F5FF01F06BFC00F086F903B4FFF7F2FF75
:1002300003BC00F08DF900000948804709480047D9
:10024000FEE7FEE7FEE7FEE7FEE7FEE7FEE7FEE786
:10025000FEE7FEE704480549054A064B70470000E3
:1002600099130008990100089000002090060020D2
:10027000900200209002002053EA020C00F06980F6
:100280002DE9F04B4FF00006002B1FBFB3FA83F5AA
:1002900003FA05F424FA05F65E4012BF1643B2FADB
:1002A00082F502FA05F4C5F120051EBF22FA05FC0D
:1002B00044EA0C04203556EA044C4FEA144418BFB3
:1002C000641C4FF000084FF00009904271EB030CE2
:1002D00039D3002919BFB1FA81F701FA07F6B0FA4C
:1002E00080F700FA07F6C7F120071EBF20FA07FCC7
:1002F00046EA0C062037B6FBF4FCA7EB0507103FD7
:1003000007F01F0BCBF120060CFA0BFB2CFA06F6BC
:1003100044BFB3460026202FA4BF5E464FF0000B1B
:100320005BEA060C08BF4FF0010B19EB0B09ABFBA6
:10033000027C48EB0608C01B06FB02CC0BFB03CC7F
:1003400071EB0C01C1E70B46024641464846BDE849
:10035000F08B13B54FF000004FF00001AFF30080B9
:10036000BDE81C407047032A40F2308010F0030CB7
:1003700000F0158011F8013BBCF1020F624498BFF8
:1003800011F801CB00F8013B38BF11F8013BA2F195
:10039000040298BF00F801CB38BF00F8013B11F010
:1003A000030300F07180083AC0F0088051F8043B64
:1003B000083A51F804CBA0E80810F5E7121D5CBF1D
:1003C00051F8043B40F8043BAFF30080D20724BF50
:1003D00011F8013B11F801CB48BF11F8012B24BFE4
:1003E00000F8013B00F801CB48BF00F8012B704733
:1003F0004FF000020429C0F0128010F0030C00F04E
:100400001B80CCF1040CBCF1020F18BF00F8012BCB
:10041000A8BF20F8022BA1EB0C0100F00DB85FEA99
:10042000C17C24BF00F8012B00F8012B48BF00F865
:10043000012B70474FF0000200B5134694469646D4
:10044000203922BFA0E80C50A0E80C50B1F12001E7
:10045000BFF4F7AF090728BFA0E80C5048BF0CC095
:100460005DF804EB890028BF40F8042B08BF7047F3
:1004700048BF20F8022B11F0804F18BF00F8012B65
:10048000704770477047704710B5203AC0F00B8036
:10049000B1E81850203AA0E81850B1E81850A0E888
:1004A0001850BFF4F5AF5FEA027C24BFB1E81850E2
:1004B000A0E8185044BF18C918C0BDE810405FEA52
:1004C000827C24BF51F8043B40F8043B08BF7047CE
:1004D000D20728BF31F8023B48BF11F8012B28BFD3
:1004E00020F8023B48BF00F8012B7047754600F02A
:1004F0002BF8AE4605006946534620F007008546B6
:1005000018B020B5FFF7A6FEBDE820404FF000066A
:100510004FF000074FF000084FF0000B21F00701EB
:10052000AC46ACE8C009ACE8C009ACE8C009ACE82E
:10053000C0098D46704710B50446AFF300802046D1
:10054000BDE81040FFF771BE004870473000002042
:1005500001491820ABBEFEE7260002007047FEE707
:1005600070470000002229B101291AD002291BD0AE
:100570004FF440720E490B6823F440730B600B6814
:1005800013430B600A6822F0F8020A600A6802232B
:1005900003EBC00002430A60086840F48030086042
:1005A00070474FF48072E5E74FF40072E2E7000015
:1005B000103C02401348016889050FD5016821F4F9
:1005C00000710160016841F400610160016821F47B
:1005D00000610160016841F4007101600168490532
:1005E0000FD5016821F480610160016841F48051F8
:1005F0000160016821F480510160016841F480616B
:1006000001607047003C024008490A6822F44072C9
:100610000A600A6842F004020A600A684FF48033F4
:1006200043EA002002430A6070470000103C024089
:10063000064A136823F44073136013681360136849
:1006400043F001031360017070470000103C02404A
:10065000094910B50C6824F440740C600C6844F42B
:1006600040740C600C6844F001040C600260BFF33D
:100670006F8F436010BD0000103C0240074A1368B2
:1006800023F440731360136843F48073136013689A
:1006900043F001031360018070470000103C0240EA
:1006A000074A136823F440731360136843F400731C
:1006B0001360136843F0010313600160704700008A
:1006C000103C02401C490868C2061C4805D5C26996
:1006D00042F01002C26110220A600A68920605D533
:1006E000C26942F00802C26120220A600A6852060A
:1006F00005D5C26942F00402C26140220A600A685C
:10070000120605D5C26942F00202C26180220A6067
:100710000A68D20506D5C26942F00102C2614FF4EF
:1007200080720A600A68920705D5C26942F0200209
:10073000C2610220086070470C3C024000000020AB
:1007400070B5114904460020C86100F0FBF9064667
:100750000E4D09E0601C07D024B100F0F3F9801BB6
:10076000A04201D9032070BD2868C003F2D42868D4
:10077000C00701D001202860286810F4F970F2D079
:10078000FFF7A0FF012070BD000000200C3C0240DC
:100790000E4910B50C48086000200860091D0C4A7D
:1007A0000A60086009490B4A10390A600860802213
:1007B000091D0A600860421E091D0A60086000F0F9
:1007C00009FA002010BD00000FC8E21020380240D6
:1007D000317917009F10600070B5044600F0B2F93F
:1007E0000546601C02D004480078044400F0AAF9D1
:1007F000401BA042FAD370BD200000202DE9F04735
:10080000044622480F46017E01290AD00121804674
:1008100001764CF250394846FFF792FF020003D0B0
:100820002FE00220BDE8F0874FF0FF3038602068ED
:10083000174D012801D0A6681CE0207C6168FFF7F5
:10084000E3FE4846FFF77CFF0246286820F00400DC
:10085000286014E0217C3046FFF784FE4846FFF70D
:100860006FFF0200286820F0FA00286001D03E6087
:1008700005E0761CD4E902100844B042EAD8FFF73C
:1008800099FE002188F818101046CBE700000020E0
:10089000103C02400348016841F000410160002023
:1008A00070470000103C02402DE9F0471B4E054602
:1008B0001446307E1F468946012808D00120307634
:1008C0004CF250384046FFF73BFF18B114E00220CD
:1008D000BDE8F0879DB1012D16D0022D19D022461A
:1008E0003B464846FFF7B4FE4046FFF729FF0C4958
:1008F0000A6822F001020A6000213176E8E7E1B2DD
:100900004846FFF795FEEFE7A1B24846FFF7B6FE6F
:10091000EAE721464846FFF7C3FEE5E7000000206E
:10092000103C0240074900200A68002A09DA054AFB
:10093000054B0C3A1360054B13600968002900DA77
:1009400001207047103C024023016745AB89EFCD81
:100950002DE9F84FDFF8B8A10022012403254FF05C
:100960000F090AF1040BAAF1040E00BF0B6804FA88
:1009700002F63340B34273D10F7907F00307012F1A
:1009800001D0022F16D187684FEA420805FA08FC09
:1009900027EA0C07D1F80CC00CFA08FC4CEA070C4B
:1009A000C0F808C04768B7430E79C6F300169640F2
:1009B0003E4346600E79F643B6070DD0C768560031
:1009C00005FA06FC27EA0C07D1F808C00CFA06FC69
:1009D0004CEA070CC0F80CC00E7906F00306022E94
:1009E00010D1D60800EB8608D8F8206057074FEAE8
:1009F000D76C09FA0CF7BE430F6907FA0CF73743B7
:100A0000C8F8207006684FEA420C05FA0CF7BE439E
:100A10000F7907F0030707FA0CF7374307604E68B2
:100A200016F4403F6DD03B4E376847F4804737603F
:100A3000366822F0030706F480460096364E07EB30
:100A4000060CDCF8086897073F0F09FA07F826EA52
:100A50000806DFF8C880404503D14FF000081EE0CB
:100A60004FE0DFF8BC80404502D14FF0010816E0AE
:100A7000DFF8B080404502D14FF002080FE0DFF808
:100A8000A880404502D14FF0030808E0DFF89C80C1
:100A9000404502D14FF0040801E04FF0070808FA82
:100AA00007F848EA0608CCF80888DAF800605746E4
:100AB000D1F804C09E435FEACC2C00D51E433E60B3
:100AC000DBF800605F46D1F804C09E435FEA8C2CDF
:100AD00000D51E433E60DEF800607746D1F804C0C2
:100AE0009E435FEA8C3C00D51E433E60084F083FA2
:100AF0003E68D1F804C09E435FEACC3C00D51E435B
:100B00003E60521C102AFFF431AFBDE8F88F0000A0
:100B1000083C0140443802400030014000000240DF
:100B20000004024000080240000C02400010024095
:100B30000069084000D0012070470AB18161704708
:100B40000904FBE70148806870470000200000208E
:100B500002488168027811448160704720000020BB
:100B60000B4810B5016841F400710160016841F45F
:100B700080610160016841F480710160032000F030
:100B800063F80F2000F006F800F026F8002010BDF2
:100B9000003C024070B50D4D04464FF47A71287840
:100BA000B1FBF0F00A490968B1FBF0F000F07AFB04
:100BB00048B9102C07D200222146501E00F024F81C
:100BC00000206C6070BD012070BD0000200000207E
:100BD0002C000020704700000A4808B5016841F465
:100BE00080410160006800F4804000900548001FCB
:100BF000016841F080510160006800F08050009071
:100C000008BD000044380240F0B40E4B1B680C468F
:100C1000C3F30223C3F10705042D00D90425191DD0
:100C2000072901D2002300E0DB1E012606FA05F1A8
:100C3000491E214099409E40761E16403143F0BC2B
:100C400000F0B3BB0CED00E0064900F007020868B5
:100C50004FF6FF03184040EA0220034A10430860A1
:100C6000704700000CED00E00000FA052DE9F047A8
:100C70000E46050065D0DFF81481D8F80000F7B201
:100C800000F00700B04207D288F80070D8F80000E2
:100C900000F00700B04254D128683D4C810712D5BE
:100CA000400703D5206840F4E05020602878000712
:100CB00003D5206840F4604020602068A96820F0D7
:100CC000F000084320602878C0072DD030496868BC
:100CD0000839012812D0022813D0032811D009683E
:100CE000890700292DDA216821F0030101432160E1
:100CF000FFF728FF814641F2883A0EE00968890330
:100D0000EFE709688901ECE7FFF71CFFA0EB090199
:100D1000514502D90320BDE8F0872068696800F0DA
:100D20000C00B0EB810FEFD1D8F80010404601F075
:100D30000701B14207D90770006800F00700B04210
:100D400001D00120E7E72878400705D52068E96849
:100D500020F4E050084320602878000706D520687A
:100D6000296920F4604040EAC100206000F0B2F838
:100D70002168084AC1F30311515CC8400649086064
:100D800006480068FFF706FF0020C4E7003C024069
:100D900008380240AB2500082C0000202400002069
:100DA0002DE9F041FFF7CEFE444C0546206840F0A7
:100DB0000100206005E000BFFFF7C4FE401B0228D1
:100DC00047D820688007F7D5206840F08000206071
:100DD000FFF7B8FE0546394E00200836306041F274
:100DE000883704E0FFF7AEFE401BB84231D83068C8
:100DF00010F00C0FF6D1FFF7A5FE0546206820F491
:100E00005020206005E000BFFFF79CFE401B6428D7
:100E10001FD820688003F7D4FFF794FE05462068AA
:100E200020F08070206004E0FFF78CFE401B022859
:100E30000FD820688001F7D4FFF784FE05462068AC
:100E400020F08060206007E0FFF77CFE401B022856
:100E500002D90320BDE8F08120680001F4D41749CD
:100E60001748091D08601549164884310860134861
:100E70000C30016821F4F8510160016821F400513F
:100E80000160016841F41F010160016841F4001133
:100E900001600A487430016821F0010101600168B5
:100EA00041F08071016009490748086008480068FE
:100EB000FFF770FE0028CDD00120CBE700380240BC
:100EC00010300004103000200024F4002C0000201A
:100ED00024000020154810B5006810F00C021448DA
:100EE00013D01449042A0FD0082A0ED10F4C241F06
:100EF0002268236802F03F025B0207D52068C0F336
:100F00008810A0FB010106E0084610BD2168C1F36E
:100F10008811A1FB00010023FFF7AEF92168C1F39E
:100F20000141491C4900B0FBF1F010BD08380240F6
:100F30000024F40040787D012DE9F84F04006ED0C4
:100F40002078DFF84C93C007A9F104054AD009F1D5
:100F500004000168C1F38101012908D00068C0F3D1
:100F6000810002280AD1D9F80000400206D528687D
:100F7000800337D560680028E1D033E06068B0F5C1
:100F8000803F10D0B0F5A02F286810D020F480301A
:100F90002860286820F4802028606068A8B1FFF7E6
:100FA000D1FD06460DE0286840F48030F4E740F4B7
:100FB00080202860F7E700BFFFF7C4FD801B64288E
:100FC00073D828688003F7D50CE0FFF7BBFD064611
:100FD00005E000BFFFF7B6FD801B6428F0D8286845
:100FE0008003F7D42078DFF8AC8280074FF0000A46
:100FF0003ED5A748001D016811F00C0F08D000680D
:10100000C0F3810002280BD1D9F80000400207D4B8
:101010002868800716D5E068012800D112E033E186
:10102000E068B8B10120C8F80000FFF78BFD064664
:1010300005E000BFFFF786FD801B0228C0D82868A6
:101040008007F7D52868216920F0F80040EAC10040
:1010500028600DE0C8F800A0FFF774FD064604E024
:10106000FFF770FD801B02281FD828688007F7D47F
:101070002078000722D5864F87486169703771B1A3
:1010800001210160FFF75EFD064604E0FFF75AFD0F
:10109000801B022809D838688007F7D50EE0C0F811
:1010A00000A0FFF74FFD064605E082E0FFF74AFD8E
:1010B000801B02287DD838688007F7D42078400745
:1010C00068D5DFF8CCB100270BF13C0BDBF8000052
:1010D000C0000BD4DBF8001041F08051CBF80010B9
:1010E000DBF80000012700F0805000906B4E306864
:1010F000C00510D4306840F480703060FFF722FDE6
:10110000009005E0FFF71EFD0099401A022850D814
:101110003068C005F6D55E4EA0686C3601280FD049
:101120000528306810D020F001003060306820F0D1
:1011300004003060A068B8B1FFF704FD00900FE034
:10114000306840F00100F4E740F004003060F7E759
:10115000FFF7F8FC0099411A41F28830814266D8C5
:1011600030688007F4D50EE0FFF7ECFC009007E054
:10117000FFF7E8FC0099411A41F28830814256D8C5
:1011800030688007F4D42FB1DBF8001021F08051D3
:10119000CBF80010A069C8B33D49091D0968C1F327
:1011A000810102294AD00228504607D0C8F86000C1
:1011B00000E03CE0FFF7C6FC04463BE04746C8F8C9
:1011C0006000FFF7BFFC064605E000BFFFF7BAFC72
:1011D000801B02282BD828688001F7D4D4E90701A6
:1011E0000843A16A2E4A490802EB0141626A41EABA
:1011F0008211084394F82C1040EA0161C9F80010EC
:1012000001203866FFF79EFC044606E03EE000BF82
:10121000FFF798FC001B022809D828688001F7D541
:1012200034E000BFFFF78EFC001B022802D9032028
:10123000BDE8F88F28688001F4D427E00128F7D0B2
:10124000D9F80000E26900F4800191421CD1226AC1
:1012500000F03F01914217D147F6C071626A014028
:10126000B1EB821F10D1A26A4FF0FF3300F440317E
:1012700003EB5202B1EB024F06D194F82C1000F0B0
:101280007060B0EB016F01D00120D1E70020CFE703
:101290000438024000004742800E47420070004080
:1012A0000000FFFF10B5401EB0F1807F01D3012088
:1012B00010BD4FF0E02460610F21601700F075F859
:1012C0000020A06107202061002010BDFEE7000083
:1012D000094808B5016841F080010160016801F02A
:1012E00080010091016841F001010160006800F097
:1012F0000100009008BD000030380240FEE7FEE724
:1013000070477047FFF724BC30B593B03021684672
:10131000FFF790F814210CA8FFF78CF81C48002464
:10132000016841F080510160006800F08050119028
:101330001848016841F4404101600068022500F44A
:1013400040401190012003901020049000950695D4
:101350000820CDE907406420CDE9090504200B9061
:101360006846FFF7E9FD08B172B6FEE70F20CDE948
:101370000C054FF48050CDE90E4003210CA81094C9
:10138000FFF774FC002801D072B6FEE713B030BD41
:1013900040380240007000400248016841F470018A
:1013A0000160704788ED00E0FEE70907090E00289C
:1013B00004DB00F1E02080F80014704700F00F001B
:1013C00000F1E02080F8141D704710B50022835C06
:1013D0008C5C63408354521C102AF8D310BD00006B
:1013E0002DE9F04FADF5017D8A46044600F068FD19
:1013F00081464FF4801564B14FEA050600F0F6FA15
:101400004FF0FF3B00B32946304600F05CFED8B9F0
:1014100001E00026F2E7224F00244FF480754FF4DC
:10142000E0282A46E11940A8FEF79DFF2A4640A978
:10143000484600F049FD814630192A4640A900F58A
:10144000807000F0CFFE20B158460DF5017DBDE85B
:10145000F08F04F580744445E3D3484600F02EFD38
:10146000044629466846FEF7E5FF0E480090022034
:10147000ADF80400ADF80650CDF80CA0CDE9047825
:10148000CDE90684012008940D90684600F0BCFD6B
:101490000E902A466946304600F0A4FED5E70000CB
:1014A000000001083141544F08B50020009000BFF2
:1014B000401C00900C28FAD308BD2DE9F043C1B0C0
:1014C00091460D46804600F0FBFC07464FF48076BF
:1014D00016E03446A54200D82C46224669464046CE
:1014E00000F057FE20B14FF0FF3041B0BDE8F0836F
:1014F00022466946384600F0E7FC0746A0442D1B0B
:10150000002DE6D1384600F0D9FCC9F800000020D3
:10151000EBE7000010B5B8B00C4608B14FF48010EE
:10152000E1880822084435A900F033FEA8BB207AE0
:10153000C0070CD000F096FB014604F12402684677
:1015400000F07BFB082235A9684600F047FB9DF8B8
:10155000D610BDF8D4009DF8DA2061F31F409DF845
:10156000D71040EA0161BDF8D800A1F1005162F343
:101570001F409DF8DB20B1F5003F40EA02600DD826
:10158000C1070BD0064920F00100884206D3054967
:10159000884203D2012038B010BDFFE70020FAE7EF
:1015A00000000108000008087FB516460546102215
:1015B0006846FEF7D8FE29466846FFF706FF012475
:1015C000684600F0FDFE684600F0ACFE684600F09C
:1015D000D1FA05EB04116846FFF7F7FE641C0A2CEC
:1015E000EED3684600F0ECFE684600F09BFE05F185
:1015F000A0016846FFF7E9FE102269463046FEF773
:10160000B2FE7FBD114808B5016841F001010160DB
:10161000016801F001010091016841F002010160DF
:10162000016801F002010091016841F004010160CC
:10163000016801F004010091016841F0800101603E
:10164000006800F08000009008BD000030380240C3
:101650002DE9F04106460024012000F043F8DFF8B0
:10166000688000254FF400676006040E012000F03A
:101670002DF8FFF719FF39464046FFF759FA0128C0
:1016800001D144F00104002000F020F8FFF70CFF26
:101690006D1C082DE8D3AEB15FF0000000F022F819
:1016A000FFF702FF012000F011F8FFF7FDFE002018
:1016B00000F00CF8FFF7F8FE012000F013F82046C8
:1016C000BDE8F0810120E9E70000024008B10122F5
:1016D00000E000224FF480510148FFF72EBA0000CD
:1016E0000000024008B1012200E000224FF4006136
:1016F0000148FFF722BA00000000024010B50120A7
:10170000FFF7F0FF0120FFF7E1FFFFF7CDFE00201C
:10171000FFF7E8FFFFF7C8FE0020FFF7D7FFBDE89F
:101720001040FFF7C1BE10B50020FFF7DBFFFFF749
:10173000BBFE0120FFF7CAFFFFF7B6FE0120FFF74F
:10174000D1FFBDE81040FFF7AFBE000070B5054601
:101750000024E809FFF7C6FFFFF7A6FE0120FFF708
:10176000B5FFFFF7A1FE0020FFF7B0FFFFF79CFEDB
:101770006806050E641C082CEBD30120FFF7B2FFAE
:10178000FFF792FE0120FFF7A1FFFFF78DFE4FF458
:1017900000610748FFF7CCF904460020FFF796FFE9
:1017A000FFF782FE14B14FF0FF3070BD002070BD16
:1017B000000002402DE9F04FADF5017D17460D46C2
:1017C000044600F07DFB809004B34FF48010E9885C
:1017D000DFF834A108444590D5F814802946204606
:1017E000FFF798FE4FF0FF3900287BD014217BA82B
:1017F000FEF720FE002040907B9002207F90042086
:101800007D907E90FFF78EF848B901E00020DEE77A
:1018100040A97BA8FEF7F2FF20B1FFF73BF80720B5
:10182000387061E0287AC0074FD000F01BFA0146FB
:1018300005F1240246A800F000FA46E04FF4807457
:10184000A04500D8044622466946459800F0A1FC10
:1018500020B101203870FFF71DF845E0287AC00755
:1018600004D02246694646A800F0B8F922466946E7
:10187000809800F029FBEB46002680901DE0A21B1B
:10188000CDF8F091042A00D304220BEB06017CA8CA
:10189000FEF769FD0AEB0601002302207C9AFFF7A0
:1018A00003F848B108204C463870FEF7F3FF204695
:1018B0000DF5017DBDE8F08F361DA642DFD34598BA
:1018C000A2442044A8EB04084590B8F10000B5D12B
:1018D000FEF7E0FF809800F0F1FAE96909248142FF
:1018E00004D000E00EE03C704846E1E700F07EF8EE
:1018F00040B16969044800F0D7FAE9698142F0D142
:101900000020D5E70A208BE70000010870B5ADF58F
:10191000027D00268DF800620446457C0320207479
:101920006683204600F03AFB002845D100F05EF8BF
:10193000C8B1207DC00706D040AB00222146284612
:1019400000F089FC78B1E1692846FFF749FD08B14C
:10195000012136E0606940F001006061204600F03E
:101960001DFB002828D1A07C6B460122214600F0F7
:1019700072FC08B1062124E0E5746069C10702D059
:1019800040F002006061204600F008FB002813D1FF
:10199000A07C80AA6946FFF70DFFB0B1207D8007CB
:1019A0000DD5062020749DF800026083204600F0CB
:1019B000F5FA204600F07DFC0DF5027D70BD9DF826
:1019C0000012204600F0F6FCF6E7A07C6074039855
:1019D000E061606940F00100606104202074012032
:1019E00020766683204600F0D9FAE5E70A4A1168B6
:1019F0005068A1F10051B1F5003F0AD8C10708D0E5
:101A000020F00100904204D30449884201D2012011
:101A1000704700207047000000000108000008081F
:101A200070B5FFF7E3FF002824D0134E35687468C3
:101A3000FEF7AEFEFFF7B4F972B600204FF0E021DA
:101A4000086148618861421E810001F1E021C1F80E
:101A50008021C1F88022401C0828F5D30748066081
:101A6000BFF34F8FBFF36F8F85F30888A446BDE89F
:101A70007040604770BD00000000010808ED00E004
:101A8000F8B51024054601262246FEF76CFC684690
:101A9000002162182A4412F8042C4254491C0429DB
:101AA000F7D3210718D113499DF801209DF8027042
:101AB0009DF800308A5CCF5D8DF801709DF8037051
:101AC000CF5D8DF80270C95C8DF803100A49895DFD
:101AD0004A408DF80020761C00212A19435C12F838
:101AE000102C491C5A402A55641C0429F5D3B02CEB
:101AF000CED3F8BD9024000890250008FFF730F8F9
:101B0000FFF702FCFFF7E4FB00F08AF9FEE700B5FF
:101B100099B0014660226846FEF725FC002003903C
:101B20006021684600F0C0F919B000BD10B5044648
:101B300000680F49884219D1A088022816D1E08890
:101B4000602813D1207C072810D8607C01280DD88C
:101B5000A07C01280AD8E07C012807D82046FFF79E
:101B6000D6FFE168884201D1012010BD002010BDE0
:101B70004D41544F2DE9F0418046002708EB870482
:101B800026786078A178E2787040514080EA0105BB
:101B900000F070FC21786840484020706078A1789F
:101BA000484000F067FC6178684048406070A07869
:101BB000E178484000F05EFCA17868404840A070A1
:101BC000E078704000F056FCE178684048407F1CA7
:101BD000E070042FD2D3BDE8F08100002DE9F0477A
:101BE00090460F460446002500F1C00621E000BFE4
:101BF00094F8D000102813D304F1B001324689467E
:101C00002046FFF7D1FC49460F200A5C521C12F017
:101C1000FF020A5401D1401EF7D5002084F8D000FD
:101C2000C0B2411C84F8D010805D795D4840785581
:101C30006D1C4545DCD3BDE8F08770B515460446FC
:101C4000FFF71EFF1022294604F1B000FEF78BFBC0
:101C5000102104F1C000FEF7CBFB102084F8D00067
:101C600070BD0000004870479B2500082DE9F04139
:101C7000154604460E004FF0FF3704D01DB1601921
:101C8000B0F5807F02D93846BDE8F081FFF736FD18
:101C9000A020FFF75BFD48B92046FFF757FD28B9A4
:101CA000FFF72CFDA120FFF751FD10B1FFF73BFD21
:101CB000E9E7002409E0671CAF4201D2012000E0FF
:101CC0000020FFF7C5FC3055BCB2AC42F3D3FFF7A0
:101CD0002AFD0020D8E700002DE9F04780460D00DE
:101CE00017464FF0FF3937D0B2B308EB0700B0F515
:101CF000807F31D83CE000BF08F00700C0F1080445
:101D0000A74200D23C46FFF7F9FCA020FFF71EFDDA
:101D100018B94046FFF71AFD10B1FFF704FD1BE0AC
:101D2000002606E0A85DFFF711FD0028F5D1761C1E
:101D3000B6B2A642F6D3FFF7F6FC0026FFF7DEFCAC
:101D4000A020FFF703FD50B1FFF7EDFC0120FEF7E7
:101D500043FD761C142EF1D34846BDE8F087FFF70B
:101D6000E2FC08EB040000F0FF08381B254487B2B2
:101D7000002FC1D10020F0E7F0B585B014216846EE
:101D8000FEF758FBFFF73EFC4FF48050009001AA8D
:101D900011200124022582E831001F4F6946384690
:101DA000FEF7D6FDE002009069463846FEF7D0FD0A
:101DB0000120FFF797FC0120FFF788FC2020002678
:101DC00003958DE8510069463846FEF7C1FD802035
:101DD000009069463846FEF7BBFDA00200906946B8
:101DE0000E48FEF7B5FD4020CDE900066946029495
:101DF0003846FEF7ADFD002220213846FEF79DFE55
:101E0000002280213846FEF798FE012000F0F6FA05
:101E100000F095F905B0F0BD00000240000402405A
:101E200000B599B0FFF7A8FF58BB684600F07AF8F4
:101E3000002803DD684600F0B1F800E028DB9DF8DB
:101E40001000072824D2DFE800F02323040810271D
:101E500008006846FFF75AFD1AE0FFF7C7FD68B1B2
:101E60000821684600F0A6FA12E0FFF7BFFD28B18E
:101E70009DF818009DF81910884203D3684600F0B9
:101E800018FA05E0401C8DF81800684600F086F846
:101E9000FFF7C6FD19B000BD00208DF818008DF8C1
:101EA0001000ADF81A00F0E7034600B50A464FF0FF
:101EB000FF30194600F008F8C04300BDC04370472A
:101EC0004FF0FF307047000070B50023094D0DE062
:101ED000CC5C60405FF0000400F0010676422E40CA
:101EE000641C86EA5000082CF6D35B1C9342EFD3A7
:101EF00070BD00002083B8ED10B504466021FEF7E8
:101F000077FA074820600220A0806020E08000204F
:101F1000207460740121A174E0740320607610BD08
:101F20004D41544F30B5B1B0050006D0602201A933
:101F30004020FFF79BFE20B109E04FF0FF3031B0A9
:101F400030BD01A8FFF7F2FD08B1012400E0002434
:101F5000602219A9A020FFF789FE28B919A8FFF768
:101F6000E5FD08B1012100E0002154EA010009D09B
:101F70002CB161B103991B98401A002807DD60223B
:101F800019A906E02846FFF7B7FF0120D7E760222E
:101F900001A92846FEF7E7F90020D0E770B598B010
:101FA00004004FF0FF3628D0164820600220A080A1
:101FB0006020E080A068401CA0600020E060204617
:101FC000FFF7A5FDE060207AC00701D0A02500E062
:101FD0004025602221462846FFF77EFE68B9602230
:101FE00069462846FFF742FE38B96846FFF79EFD6E
:101FF00018B10298A168884202D0304618B070BD6E
:102000000020FBE74D41544F10B5C0B04FF4807431
:10201000014622466846FEF7A6F900200E902146AA
:102020006846FFF741FF40B010BD000010B5040046
:102030002CD020681649884228D1A088022825D1B2
:10204000E088B0F5807F21D12069124988421DD1F6
:102050006069D8B1B0F5E02F18D8A169814215D1D7
:10206000A068410812D1C00702D0606B01280DD1D1
:102070002046FFF7C9FFA16B884207D1E088A1691C
:102080000844B0F5801F01D8012010BD002010BD0C
:102090003141544F0000010870B50C464FF0FF3538
:1020A00001280ED86CB108B14FF480104FF4807243
:1020B00000F06FF828B92046FFF7B8FF08B10020FC
:1020C00070BD284670BD2DE9F05F4FF0FF3771B34A
:1020D0000144B1F5000F2AD801F6FF7101EA073675
:1020E00000EA07344FF480394FF4805841F2883BBE
:1020F00021E02004000C06D1301B4D46A84202D33B
:102100004FF0D80A02E04FF0200A454600F09EF951
:1021100068B9002000F072F92146504600F05CF9E1
:10212000012000F06BF9584600F074F910B1384600
:10213000BDE8F09F2C44B442DBD30020F8E770B533
:10214000002000F05BF9AB2000F006F9012000F060
:1021500055F90120FEF740FB002000F04FF99F20C9
:1021600000F0FAF8FF2000F0F7F80446FF2000F036
:10217000F3F8FF2000F0F0F80546012000F03EF9EA
:10218000EF2C01D1172D02D04FF0FF3070BD002091
:1021900070BD2DE9F041164604460D004FF0FF37A3
:1021A00008D0A019B0F5000F04D84FF47A7000F0F1
:1021B00031F910B13846BDE8F081002000F01EF979
:1021C0002146032000F008F9002404E0FF2000F07D
:1021D000C3F82855641CB442F8D3012000F00EF96E
:1021E0000020E8E72DE9F047164680460D004FF045
:1021F000FF3926D008EB0600B0F5000F21D826E005
:1022000008F0FF00C0F58074A64200D2344600F00A
:102210001DF9B0B9002000F0F1F84146022000F0AD
:10222000DBF8002703E0E85D00F096F87F1CA7428A
:10223000F9D3012000F0E2F84FF47A7000F0EAF8E8
:1022400010B14846BDE8F087A0442544361B002E57
:10225000D6D10020F6E72DE9F8431C4616468846FD
:1022600040B14FF480151946FFF716FF4FF0FF37C6
:10227000D0B901E00025F6E7E088A169014446B144
:10228000D8F8240088420FD16A462846FFF715F98E
:1022900050B9E088A16928446A46FFF70EF918B9D9
:1022A000206A0099884202D03846BDE8F8830020B1
:1022B000FBE770B5C2B0002504468DF80051007DE3
:1022C0004FF0FF36800706D5E07C6B4600222146A2
:1022D000FFF7C1FF08B10B210CE006202074204657
:1022E000FFF75CFEE07C40AA6946FFF763FA38B16D
:1022F0009DF80011204600F05DF8304642B070BDF8
:10230000E07C60740398E061606920F0020040F0B6
:10231000010060612576257465832046FFF73EFE47
:102320000020EBE7417842794270427A4271427B69
:102330004272417381788279837A8370837B83715F
:1023400081728273C178C27BC270C27AC273C27951
:10235000C272C171704700002DE9F0410024144F92
:1023600006462546F20980213846FEF7E6FB700650
:10237000060EFFF799F8012220213846FEF7DDFB13
:10238000FFF792F86006040E40213846FEF7D0FBB6
:10239000012801D144F00104002220213846FEF733
:1023A000CCFB6D1C082DDDD32046BDE8F08100007C
:1023B00000000240072202744183FFF7EFBD0000D6
:1023C000044A0021435CD35C4354491C1029F9D3CF
:1023D000704700009024000810B50C46FFF7BCFFC2
:1023E000C4F30740FFF7B8FFC4F30720FFF7B4FFBB
:1023F000E0B2BDE81040FFF7AFBF000008B1012216
:1024000000E000224FF480610148FEF796BB000017
:102410000004024070B50546FEF794FB0446002018
:10242000FFF7ECFF0520FFF797FFFF20FFF794FF72
:1024300006460120FFF7E2FFF00706D0FEF782FB19
:10244000001BA842EBD34FF0FF3070BD10B54FF426
:102450007A70FFF7DFFF10B14FF0FF3010BD0020A2
:10246000FFF7CCFF0620FFF777FF0120FFF7C6FF3D
:10247000002010BDC10901EBC10101EB410181EA5E
:102480004000C0B270474FF04070E1EE100A704754
:10249000637C777BF26B6FC53001672BFED7AB7621
:1024A000CA82C97DFA5947F0ADD4A2AF9CA472C0CC
:1024B000B7FD9326363FF7CC34A5E5F171D8311539
:1024C00004C723C31896059A071280E2EB27B2755A
:1024D00009832C1A1B6E5AA0523BD6B329E32F84D2
:1024E00053D100ED20FCB15B6ACBBE394A4C58CFCA
:1024F000D0EFAAFB434D338545F9027F503C9FA89E
:1025000051A3408F929D38F5BCB6DA2110FFF3D26B
:10251000CD0C13EC5F974417C4A77E3D645D19731F
:1025200060814FDC222A908846EEB814DE5E0BDB19
:10253000E0323A0A4906245CC2D3AC629195E47950
:10254000E7C8376D8DD54EA96C56F4EA657AAE08AA
:10255000BA78252E1CA6B4C6E8DD741F4BBD8B8A45
:10256000703EB5664803F60E613557B986C11D9EAB
:10257000E1F8981169D98E949B1E87E9CE5528DF22
:102580008CA1890DBFE6426841992D0FB054BB164E
:102590000001020408102040801B362B7E151628EF
:1025A000AED2A6ABF7158809CF4F3C000000000063
:1025B000000000010203040607080900DC250008EA
:1025C0000000002030000000D40100080C260008A4
:1025D0003000002060060000F0010008000000004C
:1025E00000000000000000000000000001000000EA
:1025F00000000000000000000000000001000000DA
:0C26000010000000000000000024F400A6
:040000050800019955
:00000001FF
